:100000000C941B010C9453010C9453010C94530158
:100010000C9453010C9453010C9453010C94530110
:100020000C9453010C9453010C942E1B0C94021C41
:100030000C943B160C9453010C9453010C945301F3
:100040000C9453010C9453010C9453010C945301E0
:100050000C9453010C94C2160C9453010C9453014C
:100060000C9453010C9453010C9453010C945301C0
:100070000C9453010C9453010C9453010C945301B0
:100080000C9453010C9453010C9453010C945301A0
:100090000C9453010C9453010C9453010C94530190
:1000A0000C9453010C9453010C94530129004C00FF
:1000B00027002400250026002100220023001E0026
:1000C0001F00200016036D006100630072006F00C6
:1000D00070006100640076003100000010034A00E7
:1000E0006500660066007200650079000000040388
:1000F000090409023B00020100A0FA090400000102
:1001000003010100092111010001224000070581BE
:100110000308000109040100010300000009211186
:1001200001000122B6000705820320000112010030
:100130000200000008EDFE000000010102000105C0
:10014000010902A10185020901A10005091901297E
:10015000081500250195087501810205010930097E
:10016000311581257F95027508810609381581258D
:100170007F950175088106050C0A38021581257FD7
:10018000950175088106C0C005010980A10185039C
:1001900019012AB700150126B700950175108100D5
:1001A000C0050C0901A101850419012AA00215014D
:1001B00026A002950175108100C005010906A10164
:1001C0008506050719E029E7150025019508750141
:1001D00081020507190029EF1500250195F0750129
:1001E00081020508190129059505750191029501FE
:1001F00075039101C005010906A101050719E02950
:10020000E7150025019508750181029501750881A2
:10021000010507190029FF150026FF00950675083E
:1002200081000508190129059505750191029501BF
:1002300075039101C00011241FBECFEFDAE0DEBFCD
:10024000CDBF04B603FE18C0809184029091850250
:10025000A0918602B09187028730904BA740B04BA7
:1002600059F4109284021092850210928602109224
:100270008702E0E0F8E3099511E0A0E0B1E0EEE4E8
:10028000FDE302C005900D92AC38B107D9F722E02A
:10029000ACE8B1E001C01D92A438B207E1F70E94BA
:1002A00062100C94661E0C940000811112C0643020
:1002B00080F4433070F4E42FF0E083E0689FE00DB9
:1002C000F11D1124EE0FFF1FE455FF4F859194910E
:1002D000089581E090E008950E945501089581E01D
:1002E000089581E008950E947101089508950E9483
:1002F00076010895A5E0B0E0E0E8F1E00C94D21DAD
:1003000049835A833091930189819A81311119C0AF
:10031000662399F0222389F00E941B07182F682F6B
:1003200089819A810E94F70669817A81812F0E94D2
:10033000EF0D2596E3E00C94EE1D0E940907182F9F
:10034000F3CF0E941B0769817A81F1CFFC01262F30
:10035000408151816281738184810E947A01089574
:1003600081E00895CF93DF93EC0160E00E94A60145
:10037000BE010E947701DF91CF91089508950E94F8
:10038000C6050E94BE012FEF84E39CE0215080400F
:100390009040E1F700C0000008950E94BF010E9454
:1003A000E61608950E94BF010E940A1708950F9350
:1003B0001F93CF93DF938C0161E00E94A601EC01B3
:1003C000B8010E947301811106C080E0DF91CF91D6
:1003D0001F910F910895B801CE010E945D148823EA
:1003E000A1F3B801CE010E94F312882371F3B80182
:1003F000CE010E94CF13882341F3F8018281882324
:1004000061F0C330FCE7DF07E9F058F4C115ECE711
:10041000DE07A9F0C130DC47B9F0C8010E946F01C6
:10042000D5CFCB358CE7D807A9F0CC35ECE7DE0784
:1004300071F0CA35DC4789F70E944C0BEECF0E9461
:10044000CD01C3CF0E94540B0E94D201BECF0E94A7
:10045000420BE3CF0E94500BE0CF0E9418160E947F
:10046000540208950E9458020E941D16089508958E
:1004700081E008950895CF93DF93D82F0E9438022A
:10048000C82F882319F08D2F0E943A028C2FDF91FC
:10049000CF9108950895CF93C82F0E9437028C2FD3
:1004A0000E943B02CF91089580E00E944B02089584
:1004B0000E94AB140E944B020895CF930E94AB148C
:1004C000C82F80918E018C1779F0C0938E010E9405
:1004D000A71660938F017093900180939101909380
:1004E00092018C2F0E944B02CF910895ABE0B0E0B7
:1004F000ECE7F2E00C94D31D4F83588769877A8725
:100500008B8761110E948D0A1E821D8285E0FE018B
:100510003796DE01119601900D928A95E1F78C8154
:100520009D81892B61F449815A816B817C818D8108
:100530009E810E94B5092B96E2E00C94EF1D898103
:100540009A8189238F3F79F3CE0101960E94B001F1
:100550008111E9CFF0CFFC01808191810E944D078C
:100560000895662329F00E94E6100E94B9110895AB
:100570000E944011FACFCF93C82F8823B9F08CEF97
:100580008C0F813AA8F46C2F8091000190910101A9
:100590000E943E15882329F08C2F0E944D0A0E944C
:1005A000AE0A8C2F0E94450A0E94AE0ACF91089590
:1005B00080E28C0F883048F4C77081E001C0880F5A
:1005C000CA95EAF70E94700AEFCFEBE5EC0FE33033
:1005D00040F4F0E0E75BFE4F808190E00E94E01481
:1005E000E5CFE8E5EC0FEB3150F4F0E0EE0FFF1F44
:1005F000ED5EFE4F808191810E940515D7CF83E388
:100600008C0F833198F661E08C2F0E94B102CECF1F
:10061000882381F19CEF980F913A28F40E944D0AAB
:100620000E94AE0A089590E2980F983050F48770B7
:1006300091E001C0990F8A95EAF7892F0E94760A06
:10064000EFCF9BE5980F933028F490E080E00E9474
:10065000E014089598E5980F9B3128F490E080E02D
:100660000E940515089593E3980F933118F460E004
:100670000E94B10208951F93CF93DF93182FEB01CF
:100680000E94BB02209739F4812F0E940803DF915A
:10069000CF911F9108958FE99FE00197F1F700C076
:1006A00000002197EFCF70E060E0893311F460E53E
:1006B00070E00E943B030895882321F00E94700A95
:1006C0000E94AE0A0895882321F00E94760A0E94B3
:1006D000AE0A0895B0E0A0E0E0E7F3E00C94CC1D92
:1006E0006C01D62FC72FFC011281058102950F7076
:1006F0000E94660AE82E8823E9F0E12E1123D1F04A
:100700008C2F807F803451F080E28D0F8830F8F09C
:10071000011104C08C2F807E8032C9F080916A0262
:1007200082FF15C082E00E94110B0E94660A91E0D0
:10073000E82EE926BC2EB2949FE0B922FBE0FB151F
:10074000B8F1EB2DF0E0E859F14E0C94BD1DE12C11
:10075000F1CF0C2F0F70C07F11F00295007F112395
:1007600099F0002359F080E28D0F883010F0D111FC
:1007700007C0802F0E94700A0E94AE0A8D2F63C0AE
:10078000802F0E94800AF8CF8D2F0E94080300233B
:1007900079F080E28D0F883010F0D11104C0802FE5
:1007A0000E94760A03C0802F0E94860A0E94AE0A29
:1007B0002B2D2850330B2430310520F40E94AB142C
:1007C0000E944B02EE2089F00E94620A80FD0DC05B
:1007D000F60112820E945C0A0E945506C6010E9420
:1007E00086050E945C0A0E946506CDB7DEB7E9E087
:1007F0000C94E81D2C2F2F70F22EC07FC03219F000
:10080000F29480EFF822DD2381F0D13009F449C061
:10081000112309F451C0002309F448C0F601858171
:1008200080FFACCF8F70858341C080916A0282FDCA
:1008300015C0112359F0FF2029F08F2D0E94700A56
:100840000E94AE0A80E00E94BB02B2CF80E00E940C
:100850000803FF2009F4ACCF8F2DA2CF112381F024
:10086000011106C00E94900A8F290E945C03A0CF4C
:100870000130C1F70E94900A8F290E94970A98CFF1
:10088000011106C00E94A40A8F2D0E94630390CF1D
:10089000013009F48DCF8F2D0E9463030E94A40ABA
:1008A00087CF112329F0063008F082CF8F2DDDCFBE
:1008B000053008F07DCFE8CF002331F3D93349F478
:1008C000FFEF27EE33E0F15020403040E1F700C069
:1008D00000008D2F0E9408036BCF8C2F8695869584
:1008E000837069F0813009F063CF8D2F9C2F937056
:1008F000111102C080E090E00E94051559CF8D2FA4
:100900009C2F9370111102C080E090E00E94E014CF
:100910004FCF612F8D2F0E94B1024ACF8C2F837051
:10092000A1F5111145CF4D2F429546954770440FC3
:10093000440F2D2F2F7030E0042E02C0220F331FE2
:100940000A94E2F790E080E0D4FF09C08FE090E0E5
:1009500002C0880F991F4A95E2F780959095C69539
:10096000C695C370822B932BC23049F058F4C13026
:1009700019F00E9425061CCF0E941C0619CF0E9468
:100980002E0616CF0E94190613CF8695112311F05B
:100990008C2F8170882309F40BCF4D2F42954695FB
:1009A0004770440F440F2D2F2F7030E0042E02C0EB
:1009B000220F331F0A94E2F790E080E0D4FF09C0D1
:1009C0008FE090E002C0880F991F4A95E2F780956A
:1009D0009095C695C695C370822B932BC23049F073
:1009E00058F4C13019F00E949006E2CE0E948706AA
:1009F000DFCE0E949906DCCE0E943D06D9CECF7094
:100A0000112329F08C2F0E9455068D2F2ECF8D2F6C
:100A10000E9463038C2F0E946506CACED23F41F12B
:100A200060F4D03FB9F0D13F81F0112309F446C002
:100A30000111A4CE8C2F8F711FC0D33F01F1D43F81
:100A4000A1F780916A0282FD24C08C2F8F7111233F
:100A500011F312C0112341F0053008F0A9CE8C2FFC
:100A60008F710E947706A4CE063008F0A1CEF7CF92
:100A70008C2F8F711111CFCF0E94550699CE112363
:100A800029F08C2F8F710E94490692CE0E94440655
:100A90008FCE112349F0CF718C2F0E94550663E051
:100AA0008C2F0E94F30A84CE81E00E94110B023049
:100AB00008F47ECE82E00E94110B7ACE002359F01A
:100AC000D93309F006CF8FEF97EEE3E081509040E5
:100AD000E040E1F7FCCE8C2F8F719DCF0F931F93D9
:100AE000CF93DF93EC01688179818A810E94580756
:100AF0008C010E94A2060E941806B801CE010E9435
:100B00006A03DF91CF911F910F910895CF93DF93E7
:100B1000EC018B819C81892B29F088819981892323
:100B20008F3F51F4DF91CF910895CE010E946E0561
:100B3000CE010E94B201F6CFCE010E94D7018111F1
:100B4000F4CF0E94660A882369F38A81882351F3CF
:100B500080916A0282FFE6CF82E00E94110BE2CF11
:100B600090E080E00E94E01490E080E00E94051593
:100B70000E948D0A0E94AE0A0E94D5110E94B911EE
:100B800008950E94550A0E94B00508950E947D0AAA
:100B90000E94C105089592959F70963091F058F487
:100BA000925F9F70923058F4803F19F030F4883E85
:100BB00030F481E008959A5FF4CF843FD1F380E070
:100BC0000895883EB0F3813FD1F7F3CFFC018381D4
:100BD0009481892B29F08081918189238F3F11F4A1
:100BE00080E00895808191810E944D070E94CB058D
:100BF0000895A5E0B0E0EFEFF5E00C94D31D259645
:100C0000E2E00C94EF1DA6E0B0E0E9E0F6E00C9421
:100C1000D31D2696E2E00C94EF1D08950E940D0668
:100C200008950E940E0690939F0180939E0108955F
:100C300008950E941106089520919E0130919F0110
:100C4000822B932B0E941106089520919E013091D2
:100C50009F01822393230E941106089520919E01F3
:100C600030919F01822793270E94110608950E94C8
:100C70000D0608950E94370608950E943A06909343
:100C80009D0180939C01089590E080E00E943D06C4
:100C9000089521E030E0A90102C0440F551F8A9554
:100CA000E2F7CA010E943D06089521E030E002C04B
:100CB000220F331F8A95E2F780919C0190919D014C
:100CC000822B932B0E943D06089521E030E002C064
:100CD000220F331F8A95E2F72095309580919C0171
:100CE00090919D01822393230E943D06089521E067
:100CF00030E002C0220F331F8A95E2F780919C01F9
:100D000090919D01822793270E943D06089520918E
:100D10009C0130919D01822B932B0E943D060895EA
:100D200020919C0130919D01822393230E943D06D6
:100D3000089520919C0130919D01822793270E9464
:100D40003D0608950895262F277091E001C0990F60
:100D50002A95EAF723E0769567952A95E1F7660FDD
:100D6000771F660F771FFA01E60FF71F50E040E08C
:100D7000682F70E08191DF0111979B01042E02C062
:100D8000369527950A94E2F7217021952827292383
:100D900028272C934F5F5F4F4430510559F7089532
:100DA000A82FA77023E0969587952A95E1F7880FDD
:100DB000991F880F991FFB01E80FF91F50E040E0D1
:100DC00080E0219130E00A2E02C0369527950A94E2
:100DD000E2F721703327042E01C0220F0A94EAF7AC
:100DE000822B4F5F5F4F4430510559F70895262FEE
:100DF000943070F4833060F4682F70E083E0989F43
:100E0000600D711D112444E951E0822F0E94A30658
:100E10000895292F943068F4833058F490E064E901
:100E200071E033E0239F800D911D11240E94D006B4
:100E3000089580E00895B0E0A0E0E1E2F7E00C94CE
:100E4000CC1D7C0100919C0110919D0180919E011F
:100E500090919F01082B192BCFE0D0E0CC24C394B4
:100E6000D12CBC2EC6010C2E02C0880F991F0A94EB
:100E7000E2F780239123892B49F4219790F7B12C35
:100E80008B2DCDB7DEB7E9E00C94E81DB7018C2FB0
:100E90000E94FB0D019789F3F3CFCF93DF93EC0111
:100EA0000E941B07BE010E94FB0DDF91CF910895A8
:100EB0001F93CF93DF93EB0190919301992339F026
:100EC000CB010E944D07DF91CF911F910895882398
:100ED00069F0CB010E941B07182F682FCE010E94DA
:100EE000F706BE01812F0E94FB0DEDCFCB010E94C2
:100EF0000907182FF6CF1F93CF93DF93C091A0015E
:100F000016E08091A1018C1304C0DF91CF911F9155
:100F10000895D0E01C9FF0011D9FF00D1124EE55A7
:100F2000FE4F4081518162817381848195810E944D
:100F300003062196C770E5CF4091D2015091D301AD
:100F40006091D4017091D5018091D6019091D70123
:100F50000E94030608952091A0019091A10156E0FE
:100F6000291302C080E0089530E0529FF001539FA2
:100F7000F00D1124EE55FE4F7181761306C070817D
:100F8000781303C07281741304C02F5F3F4F277022
:100F9000E7CF81E008951F93CF93DF938091D7012E
:100FA000807F09F04BC08091D401882309F446C0AA
:100FB0008091A001C091A1014091D2015091D30133
:100FC0006091D5017091D601D42FD52316E0C817B2
:100FD000A9F190E061157105A9F1DF3F99F1189F22
:100FE000F001199FF00D1124DF01AE55BE4F11968F
:100FF0002C911197251326C02C91241323C01296EF
:101000002C91129721111EC013962D913C91261BF5
:10101000370B283C3105B0F48091D7018F70806187
:101020008093D701E955FE4F80818F708061808366
:1010300082ED91E00E9486050E947B07DF91CF91AF
:101040001F91089501968770C2CFA1E1B0E0EBE255
:10105000F8E00C94C91D8C0185E0F801DE011D96B5
:1010600001900D928A95E1F7F801F28082EDA82EA9
:1010700081E0B82E4091D5015091D601411551051E
:1010800009F45AC19091D2012091D301892F822372
:101090008F3F09F451C1C080D18083809480E0905B
:1010A000D401B401641B750BEE2009F4F6C08091E5
:1010B000D701382F307F683C710508F0AFC031117F
:1010C0007AC0EF2C2D1116C09C1114C0F11012C063
:1010D0008F7080618093D7010E949C07C5010E9498
:1010E00086058091D701F80185838E2D6196ECE00D
:1010F0000C94E51D81149104C9F18C2D8D218F3F35
:10110000A9F181E08F2580FF05C04F2D6D2D8C2D1D
:101110000E94AB078114910459F18C2D8D218F3FD2
:1011200039F181E08F25F82FF170BF2E80FF39C093
:101130004F2D6D2D8C2D0E94AB07A82E811131C033
:10114000CD86DE868D859E850E944D07292F2295AE
:101150002F70243078F49F702230A8F09923B9F0D2
:10116000F8019581907F99F4EA2CBFCF80E0CBCF36
:1011700080E0D9CF2A5F2F70223068F0C8010E942A
:101180008605AB2CF1CF992311F0882369F3805E9B
:10119000883050F3F3CF803F38F3815F833070F7AE
:1011A000E3CFFF2009F4A1CF8091D7018160809324
:1011B000D701E12C9ACF2D1105C09C1103C0FF204F
:1011C00009F486C0C8010E94E605882319F1FF20B2
:1011D00009F18091D701803270F02091D2013091D5
:1011E000D30138872F8319869B868A868C87CE0108
:1011F00007960E94860586E0F801A2EDB1E0019015
:101200000D928A95E1F70E94CB070E949C07EE247D
:10121000E3946BCFC8010E948605F9CF311114C049
:10122000782D998A888AA6016F2D89890E94F905EF
:1012300082ED91E00E94860586E0F50111928A9583
:10124000E9F70E949C07B5CF2D110EC09C110CC070
:10125000F1100AC08583C8010E94860586E0F50169
:1012600011928A95E9F741CFC8010E94E6058823CB
:1012700089F2FF2079F28091D701803208F4BBCF48
:101280002091D2013091D3013A8329831B829D8220
:101290008C828E83CE010196ACCF683C710508F03C
:1012A0003DC0EF2CFF2009F4B5CF2D1129C09C11B2
:1012B00027C08091D70180FD1AC0982F907FB9F088
:1012C0008583903F31F0982F907F905F8F70892BAE
:1012D0008583C8010E94860586E0F801A2EDB1E091
:1012E00001900D928A95E1F70E949C07FECE86E060
:1012F000F801A2EDB1E001900D928A95E1F7F5CEEB
:10130000C8010E94E605811176CF8091D7018160E6
:101310008093D701C8010E948605E7CE782D998A6F
:10132000888AA6016F2D89890E94F90586E0F5015A
:1013300011928A95E9F7D8CFFF2009F46BCFC80145
:101340000E94E605E82E882309F464CF86E0F801C0
:10135000A2EDB1E001900D928A95E1F782ED91E066
:101360000E94AB020E94CB07BFCFACE0B0E0EBEB3A
:10137000F9E00C94D21D4F83588769877A878B8751
:101380009C87CE0107960E9425088823B1F08A85A4
:101390009B85892B39F04F815885842F85238F3F7A
:1013A00009F06CC016E08091A0019091A101891311
:1013B00043C02C96E3E00C94EE1D86E0FE013796C8
:1013C000DE01119601900D928A95E1F78A859B8541
:1013D000892B41F38F81988589238F3F19F32091C1
:1013E000A10130E0C9010196877099274091A001C1
:1013F0004817190671F40E94C6051092A1011092B7
:10140000A00186E0E2EDF1E0DF011D928A95E9F7A7
:10141000C9CF96E0929FD001939FB00D1124AE5595
:10142000BE4FFE01319601900D929A95E1F780939F
:10143000A1010E947B07B6CF819FC00111248E5568
:101440009E4F0E942508882309F4B3CFE091A001A4
:101450001E9FF0011124EE55FE4F408151816281A3
:101460007381848195810E9403068091A00190E0A0
:101470000196877099278093A00195CF69857A8519
:101480008B859C850E9403068DCF682F809100017B
:10149000909101010E94BE150895682F809100016E
:1014A000909101010E94CC150895809100019091C6
:1014B00001010E94DA1508958091F80185958595BE
:1014C000859508958091F801877008959091F801AD
:1014D000977081E009F480E0089580911B020895DF
:1014E00090911B02892B80931B0208958095909107
:1014F0001B02982390931B02089510921B020895DB
:1015000090911A02892B80931A02089580959091E8
:101510001A02982390931A02089510921A020895BD
:101520008091F901089508950E94930A0895909179
:101530006A0292FF08C09091F901981721F08093F8
:10154000F9010E94940A08958091F901882329F0F5
:101550001092F90180E00E94940A0895CF93DF93DE
:10156000E0910001F091010180911B028083E091E4
:101570000001F0910101808190911A02892B8083F2
:101580009091F901992381F0E0910001F09101011E
:101590008081892B808380910001909101010E94BC
:1015A0002A1581110E94A40AC0910001D091010165
:1015B00040E250E068ED71E0CE010E940E1E892BE2
:1015C00059F080E2FE01A8EDB1E001900D928A95FC
:1015D000E1F7CE010E94B814DF91CF9108950895EC
:1015E0000E94EF0A089590916A0292FF11C098E05C
:1015F000899F90011124622B6093F8010E94550687
:101600008091F8018595859585950E94F00A089549
:101610000E94550608951092F80180E00E94F00A99
:1016200008959091F801809589238093F801282FDF
:10163000277091F4282F082E000C330B92171306F5
:1016400059F090916A0292FF07C08595859585951E
:101650000E9465060E940B0B089590916A0292FB0E
:10166000222720F9281769F080FB92F990936A02EB
:101670008091690290916A020E94750B82E00E943B
:10168000110B089580916A0282FB882780F991E00E
:1016900089270E942D0B089581E00E942D0B08954B
:1016A00080E00E942D0B08956FEF7FEF90E080E0C7
:1016B0000E94501E089590E080E00E942C1E21E0C0
:1016C000873E9E4F09F020E0822F089582E090E04F
:1016D0000E94241E089583E090E00E94241E089535
:1016E00084E090E00E942C1E0895BC0184E090E00C
:1016F0000E94501E0895AB01BC018FE090E00E9453
:10170000441E0895AB01BC0183E190E00E94441E99
:10171000089560E070E0CB010E94820B089560E0C4
:1017200070E0CB010E947B0B0E94890B089567EE4D
:101730007EEF90E080E00E94501E60E082E090E04A
:101740000E94321E60E083E090E00E94321E109200
:101750009F0110929E0160E074E184E090E00E949D
:10176000501E60E086E090E00E94321E6FEF87E03E
:1017700090E00E94321E40E050E0BA0188E090E024
:101780000E94441E60E08DE090E00E94321E40E026
:1017900050E0BA0188E190E00E94441E60E087E1D9
:1017A00090E00E94321E40E050E0BA018CE190E0EF
:1017B0000E94441E70E060E080E290E00E94501EB3
:1017C00040E050E0BA0188E190E00E94441E0E948F
:1017D0008F0B08950E94970B0895682F8EE090E07C
:1017E0000E94321E0895A5E0B0E0E9EFFBE00C9402
:1017F000D11D0E949B168C0180911C0290911D02AC
:1018000080179107A1F08FEF89838A831B820E9442
:101810009B168160782F9D838C8349815A816B81CF
:101820008D810E94760210931D0200931C02259662
:10183000E4E00C94ED1D0E94A716609326027093BD
:1018400027028093280290932902609322027093CA
:101850002302809324029093250208950895089509
:101860000E942F0C089508950E94330C089581E082
:10187000089585EE9EE00E94A1140E942E0C0E9405
:10188000300C08950E94370C08950E94420C089570
:10189000089508950E94480C0E94490C08950E94E2
:1018A000010F0E944A0208950E9492160E94C30FDF
:1018B0000E944F0CE9E6F2E080818068808380918D
:1018C000690290916A020E94750B0E94340C08957F
:1018D000A5E0B0E0EEE6FCE00C94CB1D0E94370CD6
:1018E00081110AC00E94F30B0E94F7110E945D0251
:1018F0002596EAE00C94E71D0E94D90F8EE1A82EF0
:1019000082E0B82E750110E0F70101917F01812F6F
:101910000E94270F1F5F143009F440C00817A1F37D
:1019200080912A0281FD0E942D0F0E94450CC82E35
:1019300010E0812F0E94270F082FF50181915F0190
:10194000081731F1D02ED826F12CEE24E3948D2DFA
:101950008E21B1F0CC20A1F0F9821A8391E0802F82
:101960008E2109F490E09B830E949B168160782F62
:101970009D838C8349815A816B818D810E9476027F
:10198000F394EE0CF3E0FF12E2CFF5013197008300
:101990001F5F143071F60E941B0CA6CF0813C0CF36
:1019A000A1CF1F93CF93DF930E94000EEC01C115CE
:1019B00080E5D807F0F5C11580E4D80708F09CC091
:1019C000C03ED10520F5CD3CD10508F082C0C83A13
:1019D000D10578F4C53AD10508F073C0C130D105FE
:1019E00019F1209709F1C430D105F0F4D0E0C0E03E
:1019F0001BC0C33CD105D0F7C85AD0E0CC0FDD1FC7
:101A0000C45BDE4F0990D881C02DD4640DC0C115D0
:101A100080E2D80708F0D1C0C11581E0D80708F0EE
:101A20005AC0C83ED10510F7CE01DF91CF911F916A
:101A30000895C03682E5D80718F5C03482E5D80786
:101A400008F06BC0C03282E5D80708F05FC0C1154E
:101A500082E5D80708F497C02C2F2695269580E2BA
:101A6000289F900111248C2F8370C1E0D0E002C028
:101A7000CC0FDD1F8A95E2F7C22BD32BDD68D4CFC4
:101A8000C03A82E5D80760F4C03882E5D80708F488
:101A900059C0CF71D0E0DC2FCC27C46FD06AC4CF3F
:101AA000C03C82E5D80708F462C0C03E82E5D80792
:101AB00008F09CCFDC2FCC27CC27DF71C06FD06A19
:101AC000B3CFC55AD0E0CE57DE4FC881D0E0D06446
:101AD000ABCFD065A9CF8D2F0E94A20E182FCE01BB
:101AE00099270E94000EC12FD0E0DC2FCC27CC27F5
:101AF000DF71C82BD92B98CFCE0199270E94000EF9
:101B0000CC27DF70C82BD92BD06A8ECFCF71D0E015
:101B1000DC2FCC27C16FD06A87CF2C2F2695269536
:101B2000277080E2289F900111248C2F8370C1E0E0
:101B3000D0E002C0CC0FDD1F8A95E2F7C22BD32B79
:101B4000DC6872CF2C2F26952695277080E2289F7F
:101B5000900111248C2F8370C1E0D0E002C0CC0F23
:101B6000DD1F8A95E2F7C22BD32BDA685DCF8C2F6D
:101B70008F710E94A20EC82FD0E0DC2FCC27CC277B
:101B8000DF71D06251CF8C2F8F710E94A20E55E071
:101B9000D695C7955A95E1F7CF70D0E0DC2FCC27CA
:101BA000282F30E084FF05C044E0220F331F4A9500
:101BB000E1F7C22BD32BD06937CF8D2F8F710E94C5
:101BC000A20E182FCE0199270E94000EC12FD0E03F
:101BD000DC2FCC27CC27DF71C82BD92BD2CF462FB7
:101BE000743030F4633020F4672F0E946C01089544
:101BF00090E080E008950E94EF0D0E94D10C0895BE
:101C000082389105B9F1B0F48133910509F47DC0B2
:101C100048F48932910509F46DC08A32910509F4BE
:101C20007BC008958533910509F45FC08933910520
:101C300009F10895833E9105D9F138F4803E91056C
:101C400029F1823E910579F10895863E9105D9F1F9
:101C5000873E910509F43EC0843E910541F52091EF
:101C60006A0221FF24C08091690284FD19C087EEB9
:101C700090E0089520916902237009F05AC02091E4
:101C80006A0223FF14C089E290E00895209169025E
:101C900020FD38C030916A0230FF09C024FF43C0E4
:101CA00090E080E008952091690222FDF7CF089529
:101CB0002091690222FD3AC030916A0230FD39C09C
:101CC00024FFF5CFEDCF2091690223FFF0CF24FD53
:101CD000E7CFCDCF2091690223FD2EC030916A025B
:101CE00031FFEECF84EE90E008952091690225FF48
:101CF000DECFC9CF2091690225FD21C020916A0263
:101D000023FFD5CF89E390E0D2CF2091690226FF4F
:101D1000CECF8AE290E008952091690226FFC7CFD6
:101D200081E390E0089583EE90E0089582EE90E0E4
:101D3000089580EE90E0089586EE90E0089585E3A2
:101D400090E008959091690292FF06C0282F2871B3
:101D50002830F9F4877F846093FF06C0282F28710C
:101D60002831F1F4877E846120916A0220FF06C049
:101D7000382F38713830D9F4877F816021FF06C051
:101D8000282F28712831D1F4877E816194FD877EC8
:101D90000895282F24712430F9F68B7F8860DCCFDA
:101DA000282F2471243101F78B7E8861DDCF382FF5
:101DB0003171313019F78E7F8860E0CF282F217183
:101DC000213121F78E7E8861E1CF80E008950E9465
:101DD000540B08950E94D90F8FE39CE90197F1F706
:101DE00000C000000E94D90F80E00E94270F80FFF2
:101DF00004C00E94E70E0E94E61608950E94EA0EB3
:101E000008950E945B0B811102C00E94EA0B0E94A0
:101E1000660B80932A020E94700B90936A02809353
:101E200069020E94FE0E0E946B0B90E00E94190650
:101E300080919C0190919D010E943A060895089519
:101E40000E941F0F089508950E94230F0895E82F00
:101E5000F0E0E159FD4F80810895089580EA8A9568
:101E6000F1F7089500C008950E942E0F0895F89488
:101E7000E82FE295EF70F0E031A1282F2F7081E07C
:101E800090E001C0880F2A95EAF7982F9095932348
:101E900091A392A1892B82A37894089587EF0E9441
:101EA000370F86EF0E94370F85EF0E94370F84EFC0
:101EB0000E94370F86EC0E94370F80EF0E94370F89
:101EC00081EF0E94370F0895B0E0A0E0EAE6FFE05E
:101ED0000C94CD1DEC01D62E062F10E0C8018857BA
:101EE0009E4F7C01FC0180818F3F09F445C0F8942E
:101EF000E82FE295EF70F0E091A18F7021E030E0E3
:101F000001C0220F8A95EAF7892F822B81A382A133
:101F10002095282322A378940E94320FE5E8F1E06F
:101F200048E851E031E0C12C21912F3F51F1A22F1F
:101F3000A295AF70B0E090968C9190E02F7002C0A7
:101F4000959587952A95E2F780FD1BC0832FC82AB7
:101F5000330F4E175F0741F7F70180818F3F11F074
:101F60000E94370F61E0C11001C060E08D2D0E941A
:101F7000340FC00FD11FC882CDB7DEB7E8E00C9494
:101F8000E91D80E0E4CF0E944E0F84E0EFE6F2E02E
:101F9000DF01982F1D929A95E9F7EBE6F2E0DF0159
:101FA0001D928A95E9F784E00E9416100E94200F86
:101FB0000895A4E0B0E0EFEDFFE00C94D21D19828B
:101FC0001A821B821C8210E0612FCE0101960E94B2
:101FD000640F1F5F1430C1F744E050E0BE016F5F33
:101FE0007F4F8BE692E00E940E1E21E0009709F4DD
:101FF00020E0892B61F089819A81AB81BC8180933B
:102000006B0290936C02A0936D02B0936E0244E059
:102010006FE672E08BE692E00E941710182F0E9484
:10202000240F812F2496E3E00C94EE1D0895CF92A7
:10203000DF92EF92FF920F931F93CF936C017B017E
:10204000042F222349F081E080932D020E949B16E9
:1020500090932C0280932B02C0912D02C1110AC0D3
:10206000C0E08C2FCF911F910F91FF90EF90DF90E8
:10207000CF90089580912B0290912C020E94B3166C
:10208000059770F310E0A801B601C7010E940E1E6B
:10209000892B41F0A801B601C7010E941B1E1092B6
:1020A0002D02DFCFC0E0FBCF0E947F180E94540CAE
:1020B0000E948C1808950E9491180E94680C0E943A
:1020C000AB1808950E9434160E9465180E94390CBE
:1020D0000E9454100E945B100E944A0CFBCF80911A
:1020E000340280FF0DC06091070170E0660F771F1A
:1020F0006038710570F56115710569F1862F0895D5
:1021000081FF07C06091070184E0689FB00111243E
:10211000EFCF6091070182FD0AC0809133028823CE
:10212000A9F02091060160910701821710F088E064
:10213000ECCF869FC001112433E0880F991F3A9598
:10214000E1F7622F70E00E94A91DD2CF68E070E035
:10215000D5CF8FE7089581E008958091340280FF04
:102160000CC06091030170E0759567957595679552
:102170006115710549F1862F089581FF06C06091B0
:10218000030170E075956795F3CF6091030182FDBF
:102190000BC0909132029923A1F0609102018091CD
:1021A0000301961738F0682F70E06038710500F36E
:1021B0008FE70895899FC001112470E00E94A91D36
:1021C000F4CF61E070E0D7CF81E008958D3C31F429
:1021D0000E946F1081958093380208958E3C19F407
:1021E0000E946F10F8CF8F3C31F40E946F108195E0
:1021F000809337020895803D19F40E946F10F8CF44
:10220000893D29F40E94AD108093390208958A3DDA
:1022100021F40E94AD108195F7CF8B3D31F40E94DF
:10222000AD10819580933A0208958C3D19F40E9477
:10223000AD10F8CF9FE2980F983070F4815D990B44
:1022400021E030E001C0220F8A95EAF78091360242
:10225000822B8093360208958D3D31F480913402B3
:1022600081608093340208958E3D21F48091340280
:102270008260F7CF8F3DB9F7809134028460F1CF4F
:10228000409137028D3C59F48091380287FF0DC090
:102290001092380241110BC01092330208C08E3CDC
:1022A00081F48091380218169CF3442381F08091C8
:1022B000390290913A02892B09F05AC010923202E9
:1022C00008958F3C49F447FFF0CF10923702809178
:1022D00038028111ECCFE0CF803D19F41416ACF335
:1022E000E4CF90913902893D29F41916F4F6109241
:1022F0003902DBCF8A3D19F497FFD7CFF8CF909101
:102300003A028B3D29F497FFD0CF10923A02CDCFFD
:102310008C3D19F41916CCF3C8CF9FE2980F983072
:1023200090F4815D990B21E030E0B90102C0660FA5
:10233000771F8A95E2F7CB01809590913602892329
:1023400080933602B2CF8D3D31F4809134028E7F7E
:1023500080933402AACF8E3D21F4809134028D7F88
:10236000F7CF8F3D09F0A1CF809134028B7FF0CF62
:1023700008950E949B169C0190913702809138022B
:10238000982B21F030933102209330029091390242
:1023900080913A02982B21F030932F0220932E0245
:1023A00085E392E00E94D214089586E0E5E3F2E02E
:1023B000DF011D928A95E9F71092330210923202E2
:1023C000109234020895FC01828181110EC0838134
:1023D00081110BC08481811108C091E08581811138
:1023E00001C090E0892F8170089581E0FCCFA6E0C4
:1023F000B0E0EDEFF1E10C94D21D86E0E5E3F2E010
:10240000DE01119601900D928A95E1F71092370244
:10241000109238021092390210923A028B819C81FC
:10242000892B89F080913002909131020E94B3167D
:10243000AC01909133029923C9F18091080184176E
:10244000150608F440C08D819E81892B91F0809102
:102450002E0290912F020E94B316AC01909132028D
:10246000992309F471C0809104018417150608F4BA
:1024700079C0BE016F5F7F4F85E392E00E94EC154B
:10248000811105C085E392E00E94E31181110E9451
:10249000B91186E0FE013196A5E3B2E001900D92FC
:1024A0008A95E1F72696E3E00C94EE1D2091090150
:1024B0008AE0289F900111242417350720F69F5F9A
:1024C0009093330202C09F3FD1F71B81112359F033
:1024D0000E946F109FEF11160CF491E0899F802DE0
:1024E0001124809337021C81112359F00E946F1030
:1024F0009FEF11160CF491E0899F802D1124809399
:10250000380230913702332309F49DCF20913802ED
:10251000222309F498CF45EB3403C00111249923F9
:1025200059F09093370245EB240390011124332393
:1025300039F03093380287CF81E080933702F3CFB0
:1025400081E0809338027FCF209105018AE0289FA7
:10255000900111242417350708F08BCF9F5F9093CB
:10256000320202C09F3FD1F71D81112359F00E9412
:10257000AD109FEF11160CF491E0899F802D11246E
:10258000809339021E81112359F00E94AD109FEFF4
:1025900011160CF491E0899F802D112480933A024A
:1025A00030913902332309F464CF20913A02222377
:1025B00009F45FCF45EB3403C0011124992359F08E
:1025C0009093390245EB240390011124332339F011
:1025D00030933A024ECF81E080933902F3CF81E00D
:1025E00080933A0246CFCF93DF93EC01FB018281C7
:1025F000882309F4D2C09E0130572332310508F0F8
:10260000B2C00E94700B90936A0280936902FE012F
:10261000E150F047E232F10520F4EC58F14E0C9411
:10262000BD1D8091690281608093690293C0809191
:102630006A02886080936A028DC08091690282601C
:10264000F3CF809169028460EFCF80916902886046
:10265000EBCF80916A028160EDCF80916A02826047
:10266000E9CF809169028061DFCF80916902806249
:10267000DBCF809169028064D7CF0E94C60580912C
:1026800069028068D1CF809169028C60CDCF809142
:102690006A028360CFCF809169028E7FC5CF80911F
:1026A0006A02877FC7CF809169028D7FBDCF8091FD
:1026B00069028B7FB9CF80916902877FB5CF809106
:1026C0006A028E7FB7CF80916A028D7FB3CF8091EF
:1026D00069028F7EA9CF809169028F7DA5CF8091FD
:1026E00069028F7BA1CF0E94C605809169028F7716
:1026F0009BCF80916902837F97CF80916A028C7F04
:1027000099CF8091690282FB992790F921E0922765
:1027100090FB82F990FB83F987CF80916A02982F12
:10272000909591708E7F892B90FB81F983CF90914A
:102730006902892F8F7B96FF806476CF0E94C60541
:1027400090916902892F97FB87F980586DCF81E0BE
:102750000E94ED0B8091690290916A020E94750BB4
:102760000E94C60580E0DF91CF91089580E0F0CF10
:1027700090916902892F8F7E94FF806155CF90914F
:102780006902892F8E7F90FF81604ECF90916A02FF
:10279000892F877F93FF88604DCF81E0E4CFCF936F
:1027A000DF93EB0186319C4711F50E946D0A9A81F7
:1027B000992399F08A7A91E009F490E090933B0292
:1027C000811109C089E20E94450A0E94AE0A80E098
:1027D000DF91CF91089585E3F6CF80913B0281117F
:1027E00004C089E20E944D0AF0CF85E3FBCF81E06F
:1027F000EFCF0F931F93CF93DF93C42FD22FFC0102
:1028000082818823C9F040933E020E949B169093D8
:102810003D0280933C0280E28C0F883040F4C77008
:1028200081E001C0880FCA95EAF70E945C03DF913E
:10283000CF911F910F91089510913E02141332C051
:1028400080913C0290913D020E94B316883C910514
:1028500048F5C0E2CD0F1D17B9F080E2810F883036
:1028600040F4177081E001C0880F1A95EAF70E94C2
:102870006303C83048F481E09D2F977001C0880F32
:102880009A95EAF70E945C03802F0E945303C83098
:1028900070F6D77081E001C0880FDA95EAF70E94E0
:1028A0006303C5CF80E28C0F883008F6C77081E0E3
:1028B00001C0880FCA95EAF7F2CF0F93DB01885168
:1028C0009C4787309105A0F5FC01EA56F14E0C9427
:1028D000BD1D06E221EE41EE6AE17CE7CD010E94DA
:1028E000F91380E00F91089507E225EE45EE6BE1C4
:1028F0007CE7F4CF06E221EE40EE68E17CE7EECF24
:1029000007E225EE44EE69E17CE7E8CF06E221EE3E
:1029100042EE6CE17CE7E2CF07E225EE46EE6DE1A8
:102920007CE7DCCF08E221E045EE6EE17CE7D6CF24
:1029300012968C91882319F010923E02D3CF81E039
:10294000D1CF90938D0180938C0108959093440290
:10295000809343020895E0914302F091440230973E
:1029600029F00190F081E02D0995089580E0089507
:10297000E0914302F0914402309799F020911201C6
:10298000222359F02091690227FF07C0DC012C9116
:1029900011962C93119726E02C930280F381E02D61
:1029A00009950895E0914302F0914402309739F07F
:1029B00022E0DC012C930480F581E02D0995089537
:1029C000A3E0B0E0E6EEF4E10C94D31D20914102C7
:1029D0003091420228173907A1F090934202809368
:1029E0004102E0914302F0914402309751F023E01C
:1029F00029839B838A830680F781E02DCE0101968F
:102A000009952396E2E00C94EF1DA3E0B0E0EBE023
:102A1000F5E10C94D31D20913F023091400228171C
:102A20003907A1F09093400280933F02E091430266
:102A3000F0914402309751F024E029839B838A83EC
:102A40000680F781E02DCE01019609952396E2E0FC
:102A50000C94EF1DFC01329680911201882321F025
:102A6000809169029EE187FF96E080E0915008F432
:102A7000089521912223D1F38F5FF8CF662301F1CE
:102A8000209112012223F1F02091690227FF1AC040
:102A9000462F4695469546954E3190F4677021E055
:102AA00030E002C0220F331F6A95E2F7840F911DB8
:102AB000FC01828190E02823392381E0232B69F4F3
:102AC00080E00895FC01329608962191261721F0A6
:102AD000E817F907D1F7F4CF81E008959C01FC01D4
:102AE00032969FEF80E04191461751F09F3F19F4D5
:102AF000411101C0982F8F5F8630A9F79F3F09F4DD
:102B00000895290F311D97FD3A95F90162830895C3
:102B1000FC01329608962191261303C0DF0111971C
:102B20001C92E817F907B9F70895E62FE695E695A0
:102B3000E695EE3168F4E80FF92FF11D677021E09A
:102B400030E001C0220F6A95EAF78281822B8283EE
:102B50000895E62FE695E695E695EE3170F4E80FD8
:102B6000F92FF11D677021E030E001C0220F6A9556
:102B7000EAF720958281282322830895209112016B
:102B8000222339F02091690227FF03C00E94951586
:102B900008950E946E15089520911201222339F0A4
:102BA0002091690227FF03C00E94A91508950E9481
:102BB00088150895FC01329680911201882351F006
:102BC0008091690287FF06C08EE1DF011D928A9520
:102BD000E9F7089586E0F9CF46E050E00E940E1E26
:102BE00021E0892B09F420E0822F089508950E94A6
:102BF000F6150895811106C081E0809345020E9478
:102C0000F715089582E0F9CF83E0809345020E9492
:102C1000F71508950E94FA15089581E08093450202
:102C20000E94F71508950E940D16089508950895BD
:102C30000E9417160895089508950E941616089583
:102C4000CF930E941B160E94D90F0E941C16C0E051
:102C50008C2F0E94270F811105C0CF5FC430C1F7B0
:102C6000CF91089581E0FCCF85B7806885BF85B797
:102C7000806885BF08951F921FB61F9211248F93FD
:102C80009F93AF93BF9380914602811113C08091AF
:102C9000730290917402A0917502B09176024196F0
:102CA000A11DB11D8093730290937402A0937502CD
:102CB000B0937602BF91AF919F918F911F901FBEED
:102CC0001F90189580917B02843031F10E942D0273
:102CD0001092460288E190E020E40FB6F894A8959F
:102CE000809360000FBE2093600083B7817F846073
:102CF00083BF83B7816083BF7894889583B78E7FC5
:102D000083BF0FB6F894A895809160008861809386
:102D10006000109260000FBE08950E94C6050E94D8
:102D20003202089582E084BD93E095BD9AEF97BD8D
:102D300080936E0008952FB7F8948091730290915C
:102D40007402A0917502B09176022FBF08952FB73B
:102D5000F894609173027091740280917502909161
:102D600076022FBF08959C014FB7F89480917302AB
:102D700090917402A0917502B09176024FBF821BB0
:102D8000930B089578941F921FB61F9211248F936E
:102D90009F93AF93BF938091730290917402A0911F
:102DA0007502B09176020196A11DB11D8093730248
:102DB00090937402A0937502B0937602BF91AF9185
:102DC0009F918F911F901FBE1F90189581E0809357
:102DD000E00080E28093D8001092C9008FE19EE469
:102DE0000197F1F700C0000087E090EBDC018093D1
:102DF000840290938502A0938602B093870288E1B3
:102E00009CE00FB6F894A895809360000FBE909355
:102E10006000FFCF88E19CE00FB6F894A8958093FE
:102E200060000FBE90936000FFCF8091670208950D
:102E30009B01BA0190917B029430E9F48F708093EA
:102E4000E9009FEF8091E800915085FD06C085ED77
:102E50008A95F1F700009111F5CF8091E80085FF88
:102E60000AC050E040E0C9010E9422198091E800A8
:102E70008E778093E800089543E050E0BC0182E043
:102E80000E941817089546E050E0BC0182E00E94BD
:102E900018170895CF93DF93EC01809112018111EF
:102EA00011C048E050E0BE0181E00E94181780E2A6
:102EB000FE01A7E4B2E001900D928A95E1F7DF915F
:102EC000CF9108958091690287FF05C040E282E0BA
:102ED00050E0BE01EACF48E081E0FACF80917A026B
:102EE000811109C00E94B21A0E940F1B8091E2005A
:102EF00084608093E200089510927A0208950E94FF
:102F00000D1608956091770281E0611101C080E0A3
:102F10000E940416089590917B0281E0943009F09C
:102F200080E0609177020E940A16089542E061EC09
:102F300081E00E942E1A42E261EC82E00E942E1A89
:102F400090917B0281E0943009F080E060917702FB
:102F50000E94FA15089580917D02833009F461C0C2
:102F600030F48130D1F1823009F49EC008958A3066
:102F700009F48AC08B3009F46FC0893009F050C061
:102F800080917C02813209F04BC080918002909147
:102F90008102029708F044C08091E800877F809307
:102FA000E8008091E80082FF37C09091F3008091A3
:102FB000F200029731F48091F100813011F08630F7
:102FC00021F48091F100809367028091E8008B7773
:102FD0008093E8000E94621A23C080917C02813AAB
:102FE000F9F48091E800877F8093E8008091800267
:102FF00090918102892B61F460E287E492E070E0B5
:103000000E9471198091E8008B778093E800089501
:1030100060E090E080E0F3CF80917B028111C1CF2E
:10302000089580917C02813AD9F780918002909135
:103030008102892BA9F78091E800877F8093E800BF
:103040008091E80080FFFCCF809112018093F10015
:103050008091E8008E77BCCF80917C02813201F7AD
:103060008091800290918102892BD1F68091E800B5
:10307000877F8093E8000E94621A80917E0280938D
:1030800012010E94C605089580917C02813241F6AA
:103090008091E800877F8093E8000E94621A809107
:1030A0007F0280936802089580917C02813A09F042
:1030B000B7CF8091E800877F8093E8008091E80097
:1030C00080FFFCCF80916802C1CF84B7877F84BF27
:1030D0000FB6F894A8958091600088618093600095
:1030E000109260000FBE80E890E00FB6F8948093D5
:1030F0006100909361000FBE0E94131608950E9414
:10310000B21A0E940F1BE2EEF0E08081846080839F
:1031100078940E948E1D08958AE091E00E94A61482
:10312000089580917B02853031F480917B02853057
:1031300019F00E948D1608950E94621680917902FE
:10314000882399F30E942016882379F30E940C1992
:103150000E94C605EACF08959A01409182025091DB
:1031600083020E94B4180895492F55274330510512
:1031700019F168F44130510509F444C04230510559
:1031800009F445C090E080E050E040E025C04132C5
:10319000510549F142325105A9F780E490E045EF2D
:1031A00051E061157105C1F086EB90E04FE351E00D
:1031B0006130710589F0E6CF99278130910581F062
:1031C000009729F00297F1F6E4ECF0E002C0EEEE91
:1031D000F0E0849190E0AF01F901518340830895BC
:1031E000ECEDF0E0F6CF89E090E044E051E06115CD
:1031F000710591F389E090E04DE151E06130710596
:1032000059F3C0CF82E190E04DE251E0E5CF8BE38E
:1032100090E042EF50E0E0CF80E189BD82E189BDDE
:1032200009B400FEFDCF8091D8008F7D8093D80037
:103230008091E00082608093E0008091E00081FD59
:10324000FCCF0895AF92BF92CF92DF92FF920F937F
:103250001F93CF93DF936C01EB018A010E94811AC7
:10326000F82E811123C00115110539F0F801808174
:103270009181C81BD90BC80ED91EB12CA12C209747
:10328000A9F08091E80085FD22C08091E8008E774A
:103290008093E80001151105A1F0F801808191816A
:1032A000A80EB91EB182A08285E0F82E8F2DDF9185
:1032B000CF911F910F91FF90DF90CF90BF90AF9073
:1032C00008950E94811A8823D1F2F82EEFCFF601DB
:1032D00081916F018093F1002197FFEFAF1ABF0A30
:1032E000CECFFC01809182029091830286179707CE
:1032F000A0F06115710529F49091E8009E779093F4
:10330000E80090E06115710551F4911108C08091B9
:10331000E80082FF34C080E00895BC01F2CF8091C4
:103320007B028823C1F18530C1F18091E80083FDE3
:1033300030C08091E80082FDEACF8091E80080FFF4
:10334000E1CF8091F3002091F200382F61157105D3
:1033500019F02830310558F091E02830310509F096
:1033600090E02091E8002E772093E800CBCF819168
:103370008093F100615071092F5F3F4FE7CF80913B
:103380007B02882341F0853041F08091E80083FF83
:10339000BECF81E0089582E0089583E00895FC01A6
:1033A000809182029091830286179707A0F06115A1
:1033B000710529F48091E8008E778093E80090E011
:1033C0006115710551F4911108C08091E80082FFE8
:1033D00035C080E00895BC01F2CF80917B02882344
:1033E000C9F18530C9F18091E80083FD31C0809139
:1033F000E80082FDEACF8091E80080FFE1CF809174
:10340000F3002091F200382F6115710519F0283072
:10341000310558F091E02830310509F090E08091B5
:10342000E8008E778093E800CBCF84918093F10001
:103430003196615071092F5F3F4FE6CF80917B023B
:10344000882341F0853041F08091E80083FFBDCFB3
:1034500081E0089582E0089583E00895982F9730E1
:1034600028F08F708093E90081E008959093E9003F
:10347000242F762F50E0981731F07091EC002091B6
:10348000ED005091F00021FD02C09F5FE8CF309128
:10349000EB003E7F3093EB003091ED003D7F3093A9
:1034A000ED003091EB0031603093EB007093EC0055
:1034B0002093ED005093F0002091EE0027FDE5CF22
:1034C00080E0089580917C0287FF13C08091E8001E
:1034D00082FF06C08091E8008B778093E80004C0EB
:1034E00080917B028111F2CF089580917B02882325
:1034F000D9F38091E80080FFF8CF8091E8008E77C3
:10350000ECCF2091E4003091E50095E6A9012091EF
:10351000EC00822F817020FF06C08091E80080FFC0
:1035200006C080E008952091E80022FD1AC0809135
:103530007B02882389F0853089F08091EB0085FD3E
:103540000FC02091E4003091E50042175307F9F2D3
:103550009150E1F684E0089582E0089583E00895B3
:1035600081E008950E94211B0E94291BE0EEF0E0FB
:10357000808181608083E8EDF0E080818F778083B7
:1035800019BCA7EDB0E08C918E7F8C9380818F7EEB
:10359000808310927A0208950F931F93CF93DF9345
:1035A0000E94211B0E94291BC8EDD0E088818F77E3
:1035B000888388818068888388818F7D888319BC0F
:1035C00010927B0210927702109279021092780288
:1035D00000EE10E0F80180818B7F8083888181601C
:1035E000888342E060E080E00E942E1AE1EEF0E085
:1035F00080818E7F8083E2EEF0E080818160808335
:10360000808188608083F80180818E7F80838881BB
:1036100080618883DF91CF911F910F910895E8ED2C
:10362000F0E080818F7E8083E7EDF0E08081816033
:10363000808384E082BF81E080937A020E94CC1A6A
:103640000895E8EDF0E080818E7F80831092E200A3
:1036500008951092DA001092E10008951F920F92DF
:103660000FB60F9211242F933F934F935F936F9355
:103670007F938F939F93AF93BF93EF93FF9380912B
:10368000E10082FF0BC08091E20082FF07C08091C1
:10369000E1008B7F8093E1000E948D1D8091DA0014
:1036A00080FF19C08091D80080FF15C08091DA009A
:1036B0008E7F8093DA008091D90080FF96C080E1F0
:1036C00089BD82E189BD09B400FEFDCF81E0809310
:1036D0007B020E946E178091E10080FF19C08091EB
:1036E000E20080FF15C08091E2008E7F8093E200AF
:1036F0008091E20080618093E2008091D800806236
:103700008093D80019BC85E080937B020E948217C9
:103710008091E10084FF2BC08091E20084FF27C0EC
:1037200080E189BD82E189BD89B5982F917080FFC4
:10373000FBCF8091D8008F7D8093D8008091E100ED
:103740008F7E8093E1008091E2008F7E8093E20083
:103750008091E20081608093E2008091770288236B
:1037600009F449C084E080937B020E948B1780910A
:10377000E10083FF29C08091E20083FF25C0809192
:10378000E100877F8093E10082E080937B021092CA
:1037900077028091E1008E7F8093E1008091E200CA
:1037A0008E7F8093E2008091E20080618093E2004E
:1037B00042E060E080E00E942E1A8091F000886074
:1037C0008093F0000E947F17FF91EF91BF91AF911E
:1037D0009F918F917F916F915F914F913F912F9129
:1037E0000F900FBE0F901F90189519BC10927B027E
:1037F0000E947C1770CF8091E30087FD93E0909347
:103800007B02B3CF1F920F920FB60F9211242F930A
:103810003F934F935F936F937F938F939F93AF9358
:10382000BF93CF93DF93EF93FF93D091E900DF70C5
:103830008091EC00C82FC17080FDC0E81092E900B3
:103840008091F000877F8093F00078940E94461C5E
:103850001092E9008091F00088608093F000CD2BF9
:10386000CF70C093E900FF91EF91DF91CF91BF91AD
:10387000AF919F918F917F916F915F914F913F9108
:103880002F910F900FBE0F901F901895AAE2B0E0F5
:10389000ECE4FCE10C94D21D8CE792E02091F10065
:1038A000FC012193CF01F2E084389F07B9F70E9411
:1038B000AB178091E80083FF1EC180917C0290913C
:1038C0007D029A3008F017C1E92FF0E0E356F14E7F
:1038D0000C94BD1D803899F0823809F00CC180919C
:1038E00080028F70873008F006C18093E9008091D4
:1038F000EB0085FB882780F91092E90006C08091D3
:10390000780290917902911182609091E800977FFE
:103910009093E8008093F1001092F1008091E8000C
:103920008E77E5C0882309F4D3C0823009F0E3C064
:1039300080917E028111D6C0809180028F702FEF1E
:10394000280F263008F0D7C08093E9002091EB00C3
:1039500020FFC8C0933031F48091EB0080628093E7
:10396000EB00C0C09091EB0090619093EB0021E0E0
:1039700030E001C0220F8A95EAF72093EA00109206
:10398000EA008091EB008860EACF8111B4C0109109
:103990007E021F778091E3008078812B8093E30083
:1039A0008091E800877F8093E8000E94621A8091EE
:1039B000E80080FFFCCF8091E30080688093E30003
:1039C00082E0111183E080937B0295C080588230A1
:1039D00008F091C080917E0290917F028C3D23E09F
:1039E0009207A1F583E08A838AE289834FB7F8942E
:1039F000DE01139620E03EE051E2E32FF0E0509329
:103A00005700E49120FF03C0E295EF703F5FEF7035
:103A10008E2F90E0EA30C0F0C7968D939D932F5F74
:103A2000243159F74FBF8091E800877F8093E800E9
:103A30006AE270E0CE0101960E9471198091E8005F
:103A40008B778093E80057C0C096E7CF60918002E3
:103A500070918102AE014F5F5F4F0E94AC18BC01B4
:103A6000892B09F448C09091E800977F9093E80073
:103A700089819A810E94CF19E1CF8038E1F5809148
:103A8000E800877F8093E800809177028093F100BF
:103A900045CF811130C090917E02923060F58091C7
:103AA000E800877F8093E800909377020E94621A73
:103AB00080917702882311F084E005C08091E300B3
:103AC00087FDFACF81E080937B020E94961713C096
:103AD00080917E02813079F481E0933009F080E0BA
:103AE000809379021092E9008091E800877F8093AB
:103AF000E8000E94621A8091E80083FF0AC080916A
:103B0000E800877F8093E8008091EB0080628093DB
:103B1000EB00AA96E3E00C94EE1D0895CF938091FC
:103B20007B028823A1F0C091E900CF709091EC0056
:103B3000892F817090FD80E8C82B1092E900809158
:103B4000E80083FD0E94461CCF70C093E900CF912E
:103B5000089597FB072E16F4009407D077FD09D03F
:103B60000E94FA1D07FC05D03EF4909581959F4F69
:103B70000895709561957F4F0895EE0FFF1F059092
:103B8000F491E02D09942F923F924F925F926F92A1
:103B90007F928F929F92AF92BF92CF92DF92EF92DD
:103BA000FF920F931F93CF93DF93CDB7DEB7CA1B5E
:103BB000DB0B0FB6F894DEBF0FBECDBF09942A8889
:103BC000398848885F846E847D848C849B84AA8431
:103BD000B984C884DF80EE80FD800C811B81AA81BE
:103BE000B981CE0FD11D0FB6F894DEBF0FBECDBF89
:103BF000ED010895AA1BBB1B51E107C0AA1FBB1F03
:103C0000A617B70710F0A61BB70B881F991F5A9568
:103C1000A9F780959095BC01CD010895FB01DC01C9
:103C200004C08D910190801921F441505040C8F793
:103C3000881B990B0895FB01DC0102C001900D92D5
:103C400041505040D8F70895F999FECF92BD81BDFB
:103C5000F89A992780B50895A8E1B0E042E050E0D5
:103C60000C94581E262FF999FECF92BD81BDF89A6B
:103C7000019700B4021639F01FBA20BD0FB6F894B0
:103C8000FA9AF99A0FBE08950396272F0E94331EC1
:103C90000E94321E252F0E94331E242F0C94331EA7
:103CA0000196272F0E94331E0C94321EDC01CB019B
:103CB000FC01F999FECF06C0F2BDE1BDF89A31963C
:103CC00000B40D9241505040B8F70895F894FFCFDA
:103CD000A903A903FA03FA036D048904D803D803DE
:103CE0008E04FF040E050E054B13BF1353131D1353
:103CF0002113571325135B1367133113B8133513AF
:103D00006B1339136F1397133D1373139E134313E0
:103D10007913811329135F132D13631347137D1335
:103D20008D13A713B61317134F13C6137A148014E9
:103D30006914741486148C1492146A1C921C7B1DD2
:0E3D4000921C7B1DC51CE61C7B1D3D1D491DF4
:103D4E00FA01280850011E0A140115174A174317C5
:103D5E003C1701E200E900EA00B500B600B700CD5D
:103D6E00008301CC008A01920194012102230224D6
:103D7E00022502260227022A02B300B4006F007049
:103D8E00009F01CB019F02A002818283E200E90025
:103D9E00EA00B500B600B700CD008301CC008A0161
:103DAE0092019401210223022402250226022702F7
:103DBE002A02B300B4006F0070009F01CB019F0276
:0C3DCE00A002818283C6F0F1F7F6F5F444
:00000001FF
