:100000000C94FD000C9435010C9435010C943501D1
:100010000C9435010C9435010C9435010C94350188
:100020000C9435010C9435010C94791A0C944D1BE9
:100030000C9496150C9435010C9435010C943501F3
:100040000C9435010C9435010C9435010C94350158
:100050000C9435010C941D160C9435010C9435014B
:100060000C9435010C9435010C9435010C94350138
:100070000C9435010C9435010C9435010C94350128
:100080000C9435010C9435010C9435010C94350118
:100090000C9435010C9435010C9435010C94350108
:1000A0000C9435010C9435010C94350129004C0059
:1000B00027002400250026002100220023001E0026
:1000C0001F00200016036D006100630072006F00C6
:1000D00070006100640076003100000010034A00E7
:1000E0006500660066007200650079000000040388
:1000F000090409023B00020100A0FA090400000102
:1001000003010100092111010001224000070581BE
:100110000308000109040100010300000009211186
:10012000010001227B00070582032000011201006B
:100130000200000008EDFE000000010102000105C0
:10014000010902A10185020901A10005091901297E
:10015000081500250195087501810205010930097E
:10016000311581257F95027508810609381581258D
:100170007F950175088106050C0A38021581257FD7
:10018000950175088106C0C005010980A10185039C
:1001900019012AB700150126B700950175108100D5
:1001A000C0050C0901A101850419012AA00215014D
:1001B00026A002950175108100C005010906A10164
:1001C000050719E029E71500250195087501810249
:1001D0009501750881010507190029FF150026FF03
:1001E0000095067508810005081901290595057512
:1001F000019102950175039101C011241FBECFEF3B
:10020000DAE0DEBFCDBF04B603FE18C080913C0229
:1002100090913D02A0913E02B0913F028730904BF9
:10022000A740B04B59F410923C0210923D0210923C
:100230003E0210923F02E0E0F8E3099511E0A0E0F1
:10024000B1E0E4EEFBE302C005900D92AC38B107DB
:10025000D9F722E0ACE8B1E001C01D92AC33B2079F
:10026000E1F70E9439100C94B11D0C94000081112B
:1002700012C0643080F4433070F4E42FF0E083E087
:10028000689FE00DF11D1124EE0FFF1FE455FF4F95
:1002900085919491089581E090E008950E9437013E
:1002A000089581E0089581E008950E945301089522
:1002B00008950E9458010895A5E0B0E0E2E6F1E05B
:1002C0000C941D1D49835A833091930189819A8131
:1002D000311119C0662399F0222389F00E94FD068E
:1002E000182F682F89819A810E94D90669817A81A5
:1002F000812F0E94C60D2596E3E00C94391D0E94C3
:10030000EB06182FF3CF0E94FD0669817A81F1CFA9
:10031000FC01262F408151816281738184810E947A
:100320005C01089581E00895CF93DF93EC0160E0D4
:100330000E948801BE010E945901DF91CF9108956A
:1003400008950E94A8050E94A0012FEF84E39CE07D
:10035000215080409040E1F700C0000008950E94C5
:10036000A1010E94411608950E94A1010E946516F4
:1003700008950F931F93CF93DF938C0161E00E9448
:100380008801EC01B8010E945501811106C080E08E
:10039000DF91CF911F910F910895B801CE010E9476
:1003A00034148823A1F3B801CE010E94CA12882315
:1003B00071F3B801CE010E94A613882341F3F8011E
:1003C0008281882361F0C330FCE7DF07E9F058F44D
:1003D000C115ECE7DE07A9F0C130DC47B9F0C80170
:1003E0000E945101D5CFCB358CE7D807A9F0CC3589
:1003F000ECE7DE0771F0CA35DC4789F70E942E0B67
:10040000EECF0E94AF01C3CF0E94360B0E94B40111
:10041000BECF0E94240BE3CF0E94320BE0CF0E949C
:1004200073150E94360208950E943A020E947815C0
:100430000895089581E008950895CF93DF93D82F0C
:100440000E941A02C82F882319F08D2F0E941C02C7
:100450008C2FDF91CF9108950895CF93C82F0E94DC
:1004600019028C2F0E941D02CF91089580E00E94F6
:100470002D0208950E9482140E942D020895CF93A8
:100480000E948214C82F80918E018C1779F0C0933E
:100490008E010E94021660938F01709390018093E9
:1004A0009101909392018C2F0E942D02CF9108957B
:1004B000ABE0B0E0EEE5F2E00C941E1D4F835887F0
:1004C00069877A878B8761110E946F0A1E821D825D
:1004D00085E0FE013796DE01119601900D928A9516
:1004E000E1F78C819D81892B61F449815A816B816F
:1004F0007C818D819E810E9497092B96E2E00C946D
:100500003A1D89819A8189238F3F79F3CE01019623
:100510000E9492018111E9CFF0CFFC01808191818D
:100520000E942F070895662329F00E94BD100E94A3
:10053000901108950E941711FACFCF93C82F8823E6
:10054000B9F08CEF8C0F813AA8F46C2F80910001E8
:10055000909101010E940415882329F08C2F0E949C
:100560002F0A0E94900A8C2F0E94270A0E94900A4C
:10057000CF91089580E28C0F883048F4C77081E0F5
:1005800001C0880FCA95EAF70E94520AEFCFEBE547
:10059000EC0FE33040F4F0E0E75BFE4F808190E049
:1005A0000E94A814E5CFE8E5EC0FEB3150F4F0E041
:1005B000EE0FFF1FED5EFE4F808191810E94CD14F2
:1005C000D7CF83E38C0F833198F661E08C2F0E94A4
:1005D0009302CECF882381F19CEF980F913A28F4B3
:1005E0000E942F0A0E94900A089590E2980F983076
:1005F00050F4877091E001C0990F8A95EAF7892F2E
:100600000E94580AEFCF9BE5980F933028F490E0B2
:1006100080E00E94A814089598E5980F9B3128F473
:1006200090E080E00E94CD14089593E3980F9331F9
:1006300018F460E00E94930208951F93CF93DF9314
:10064000182FEB010E949D02209739F4812F0E9400
:10065000EA02DF91CF911F9108958FE99FE0019702
:10066000F1F700C000002197EFCF70E060E0893320
:1006700011F460E570E00E941D030895882321F0C5
:100680000E94520A0E94900A0895882321F00E9435
:10069000580A0E94900A0895B0E0A0E0E2E5F3E075
:1006A0000C94171D6C01D62FC72FFC0112810581F8
:1006B00002950F700E94480AE82E8823E9F0E12E87
:1006C0001123D1F08C2F807F803451F080E28D0F88
:1006D0008830F8F0011104C08C2F807E8032C9F080
:1006E0008091220282FF15C082E00E94F30A0E94DC
:1006F000480A91E0E82EE926BC2EB2949FE0B92288
:10070000FBE0FB15B8F1EB2DF0E0ED54F24E0C944C
:10071000081DE12CF1CF0C2F0F70C07F11F0029556
:10072000007F112399F0002359F080E28D0F88306B
:1007300010F0D11107C0802F0E94520A0E94900A27
:100740008D2F63C0802F0E94620AF8CF8D2F0E94E8
:10075000EA02002379F080E28D0F883010F0D11189
:1007600004C0802F0E94580A03C0802F0E94680A8C
:100770000E94900A2B2D2850330B2430310520F491
:100780000E9482140E942D02EE2089F00E94440AE9
:1007900080FD0DC0F60112820E943E0A0E943706BB
:1007A000C6010E9468050E943E0A0E944706CDB716
:1007B000DEB7E9E00C94331D2C2F2F70F22EC07F92
:1007C000C03219F0F29480EFF822DD2381F0D130AD
:1007D00009F449C0112309F451C0002309F448C0A9
:1007E000F601858180FFACCF8F70858341C08091F9
:1007F000220282FD15C0112359F0FF2029F08F2D10
:100800000E94520A0E94900A80E00E949D02B2CF8C
:1008100080E00E94EA02FF2009F4ACCF8F2DA2CF26
:10082000112381F0011106C00E94720A8F290E94D3
:100830003E03A0CF0130C1F70E94720A8F290E94A7
:10084000790A98CF011106C00E94860A8F2D0E9456
:10085000450390CF013009F48DCF8F2D0E944503C1
:100860000E94860A87CF112329F0063008F082CF34
:100870008F2DDDCF053008F07DCFE8CF002331F399
:10088000D93349F4FFEF27EE33E0F15020403040F8
:10089000E1F700C000008D2F0E94EA026BCF8C2F81
:1008A00086958695837069F0813009F063CF8D2F2E
:1008B0009C2F9370111102C080E090E00E94CD1433
:1008C00059CF8D2F9C2F9370111102C080E090E0C2
:1008D0000E94A8144FCF612F8D2F0E9493024ACF00
:1008E0008C2F8370A1F5111145CF4D2F4295469560
:1008F0004770440F440F2D2F2F7030E0042E02C09C
:10090000220F331F0A94E2F790E080E0D4FF09C081
:100910008FE090E002C0880F991F4A95E2F780951A
:100920009095C695C695C370822B932BC23049F023
:1009300058F4C13019F00E9407061CCF0E94FE0532
:1009400019CF0E94100616CF0E94FB0513CF869583
:10095000112311F08C2F8170882309F40BCF4D2FB8
:10096000429546954770440F440F2D2F2F7030E06D
:10097000042E02C0220F331F0A94E2F790E080E0B9
:10098000D4FF09C08FE090E002C0880F991F4A95FC
:10099000E2F780959095C695C695C370822B932BF0
:1009A000C23049F058F4C13019F00E947206E2CE0C
:1009B0000E946906DFCE0E947B06DCCE0E941F06E5
:1009C000D9CECF70112329F08C2F0E9437068D2F9E
:1009D0002ECF8D2F0E9445038C2F0E944706CACE32
:1009E000D23F41F160F4D03FB9F0D13F81F0112303
:1009F00009F446C00111A4CE8C2F8F711FC0D33FC4
:100A000001F1D43FA1F78091220282FD24C08C2FF6
:100A10008F71112311F312C0112341F0053008F03A
:100A2000A9CE8C2F8F710E945906A4CE063008F0F3
:100A3000A1CEF7CF8C2F8F711111CFCF0E94370627
:100A400099CE112329F08C2F8F710E942B0692CE04
:100A50000E9426068FCE112349F0CF718C2F0E9461
:100A6000370663E08C2F0E94D50A84CE81E00E9475
:100A7000F30A023008F47ECE82E00E94F30A7ACEB6
:100A8000002359F0D93309F006CF8FEF97EEE3E05A
:100A900081509040E040E1F7FCCE8C2F8F719DCFCC
:100AA0000F931F93CF93DF93EC01688179818A8143
:100AB0000E943A078C010E9484060E94FA05B80140
:100AC000CE010E944C03DF91CF911F910F910895A9
:100AD000CF93DF93EC018B819C81892B29F0888156
:100AE000998189238F3F51F4DF91CF910895CE01F1
:100AF0000E945005CE010E949401F6CFCE010E94C3
:100B0000B9018111F4CF0E94480A882369F38A81D0
:100B1000882351F38091220282FFE6CF82E00E9477
:100B2000F30AE2CF90E080E00E94A81490E080E019
:100B30000E94CD140E946F0A0E94900A0E94AC117C
:100B40000E94901108950E94370A0E94920508950C
:100B50000E945F0A0E94A305089592959F709630A7
:100B600091F058F4925F9F70923058F4803F19F0E2
:100B700030F4883E30F481E008959A5FF4CF843FEA
:100B8000D1F380E00895883EB0F3813FD1F7F3CFF1
:100B9000FC0183819481892B29F0808191818923B3
:100BA0008F3F11F480E00895808191810E942F078A
:100BB0000E94AD050895A5E0B0E0E1EEF5E00C94EB
:100BC0001E1D2596E2E00C943A1DA6E0B0E0EBEE87
:100BD000F5E00C941E1D2696E2E00C943A1D089553
:100BE0000E94EF0508950E94F00590939F01809365
:100BF0009E01089508950E94F305089520919E0195
:100C000030919F01822B932B0E94F3050895209130
:100C10009E0130919F01822393230E94F305089542
:100C200020919E0130919F01822793270E94F30516
:100C300008950E94EF0508950E94190608950E94E4
:100C40001C0690939D0180939C01089590E080E0A4
:100C50000E941F06089521E030E0A90102C0440F60
:100C6000551F8A95E2F7CA010E941F06089521E0E8
:100C700030E002C0220F331F8A95E2F780919C0179
:100C800090919D01822B932B0E941F06089521E0D5
:100C900030E002C0220F331F8A95E2F7209530958D
:100CA00080919C0190919D01822393230E941F06B5
:100CB000089521E030E002C0220F331F8A95E2F749
:100CC00080919C0190919D01822793270E941F068D
:100CD000089520919C0130919D01822B932B0E94BD
:100CE0001F06089520919C0130919D01822393233A
:100CF0000E941F06089520919C0130919D0182273A
:100D000093270E941F0608950895262F277091E0CB
:100D100001C0990F2A95EAF723E0769567952A9501
:100D2000E1F7660F771F660F771FFA01E60FF71FCF
:100D300050E040E0682F70E08191DF0111979B0146
:100D4000042E02C0369527950A94E2F7217021956A
:100D50002827292328272C934F5F5F4F44305105C4
:100D600059F70895A82FA77023E0969587952A959F
:100D7000E1F7880F991F880F991FFB01E80FF91FF2
:100D800050E040E080E0219130E00A2E02C036952C
:100D900027950A94E2F721703327042E01C0220F11
:100DA0000A94EAF7822B4F5F5F4F4430510559F7A1
:100DB0000895262F943070F4833060F4682F70E02B
:100DC00083E0989F600D711D112444E951E0822F4A
:100DD0000E9485060895292F943068F4833058F4D2
:100DE00090E064E971E033E0239F800D911D1124B0
:100DF0000E94B206089580E00895B0E0A0E0E3E02C
:100E0000F7E00C94171D7C0100919C0110919D014D
:100E100080919E0190919F01082B192BCFE0D0E08B
:100E2000CC24C394D12CBC2EC6010C2E02C0880F3A
:100E3000991F0A94E2F780239123892B49F4219783
:100E400090F7B12C8B2DCDB7DEB7E9E00C94331DB4
:100E5000B7018C2F0E94D20D019789F3F3CFCF9366
:100E6000DF93EC010E94FD06BE010E94D20DDF91CE
:100E7000CF9108951F93CF93DF93EB01909193014E
:100E8000992339F0CB010E942F07DF91CF911F9159
:100E90000895882369F0CB010E94FD06182F682F62
:100EA000CE010E94D906BE01812F0E94D20DEDCF46
:100EB000CB010E94EB06182FF6CF1F93CF93DF9341
:100EC000C091A00116E08091A1018C1304C0DF91B4
:100ED000CF911F910895D0E01C9FF0011D9FF00D50
:100EE0001124EE55FE4F40815181628173818481CE
:100EF00095810E94E5052196C770E5CF4091D2010A
:100F00005091D3016091D4017091D5018091D601A7
:100F10009091D7010E94E50508952091A00190913C
:100F2000A10156E0291302C080E0089530E0529FED
:100F3000F001539FF00D1124EE55FE4F7181761391
:100F400006C07081781303C07281741304C02F5FD0
:100F50003F4F2770E7CF81E008951F93CF93DF9332
:100F60008091D701807F09F04BC08091D401882304
:100F700009F446C08091A001C091A1014091D20125
:100F80005091D3016091D5017091D601D42FD52312
:100F900016E0C817A9F190E061157105A9F1DF3FCE
:100FA00099F1189FF001199FF00D1124DF01AE5542
:100FB000BE4F11962C911197251326C02C91241306
:100FC00023C012962C91129721111EC013962D91B9
:100FD0003C91261B370B283C3105B0F48091D7019A
:100FE0008F7080618093D701E955FE4F80818F70AB
:100FF0008061808382ED91E00E9468050E945D0718
:10100000DF91CF911F91089501968770C2CFA1E122
:10101000B0E0EDE0F8E00C94141D8C0185E0F801DF
:10102000DE011D9601900D928A95E1F7F801F2809C
:1010300082EDA82E81E0B82E4091D5015091D601C5
:101040004115510509F45AC19091D2012091D30163
:10105000892F82238F3F09F451C1C080D1808380C2
:101060009480E090D401B401641B750BEE2009F468
:10107000F6C08091D701382F307F683C710508F0A9
:10108000AFC031117AC0EF2C2D1116C09C1114C0C5
:10109000F11012C08F7080618093D7010E947E078B
:1010A000C5010E9468058091D701F80185838E2DC6
:1010B0006196ECE00C94301D81149104C9F18C2DE3
:1010C0008D218F3FA9F181E08F2580FF05C04F2D35
:1010D0006D2D8C2D0E948D078114910459F18C2D5A
:1010E0008D218F3F39F181E08F25F82FF170BF2ED0
:1010F00080FF39C04F2D6D2D8C2D0E948D07A82E9D
:10110000811131C0CD86DE868D859E850E942F0798
:10111000292F22952F70243078F49F702230A8F068
:101120009923B9F0F8019581907F99F4EA2CBFCF0B
:1011300080E0CBCF80E0D9CF2A5F2F70223068F0DB
:10114000C8010E946805AB2CF1CF992311F08823C8
:1011500069F3805E883050F3F3CF803F38F3815FCE
:10116000833070F7E3CFFF2009F4A1CF8091D7013E
:1011700081608093D701E12C9ACF2D1105C09C117D
:1011800003C0FF2009F486C0C8010E94C805882357
:1011900019F1FF2009F18091D701803270F0209180
:1011A000D2013091D30138872F8319869B868A8696
:1011B0008C87CE0107960E94680586E0F801A2EDB3
:1011C000B1E001900D928A95E1F70E94AD070E946F
:1011D0007E07EE24E3946BCFC8010E946805F9CF27
:1011E000311114C0782D998A888AA6016F2D8989BA
:1011F0000E94DB0582ED91E00E94680586E0F50122
:1012000011928A95E9F70E947E07B5CF2D110EC085
:101210009C110CC0F1100AC08583C8010E946805AA
:1012200086E0F50111928A95E9F741CFC8010E9445
:10123000C805882389F2FF2079F28091D701803296
:1012400008F4BBCF2091D2013091D3013A83298396
:101250001B829D828C828E83CE010196ACCF683C2E
:10126000710508F03DC0EF2CFF2009F4B5CF2D111A
:1012700029C09C1127C08091D70180FD1AC0982FEA
:10128000907FB9F08583903F31F0982F907F905FE9
:101290008F70892B8583C8010E94680586E0F8015C
:1012A000A2EDB1E001900D928A95E1F70E947E07D0
:1012B000FECE86E0F801A2EDB1E001900D928A9594
:1012C000E1F7F5CEC8010E94C805811176CF809163
:1012D000D70181608093D701C8010E946805E7CEDD
:1012E000782D998A888AA6016F2D89890E94DB054D
:1012F00086E0F50111928A95E9F7D8CFFF2009F42D
:101300006BCFC8010E94C805E82E882309F464CF7A
:1013100086E0F801A2EDB1E001900D928A95E1F727
:1013200082ED91E00E948D020E94AD07BFCFACE03C
:10133000B0E0EDE9F9E00C941D1D4F8358876987F3
:101340007A878B879C87CE0107960E94070888239F
:10135000B1F08A859B85892B39F04F815885842F80
:1013600085238F3F09F06CC016E08091A001909119
:10137000A101891343C02C96E3E00C94391D86E04B
:10138000FE013796DE01119601900D928A95E1F7E4
:101390008A859B85892B41F38F81988589238F3F8F
:1013A00019F32091A10130E0C901019687709927B6
:1013B0004091A0014817190671F40E94A8051092E7
:1013C000A1011092A00186E0E2EDF1E0DF011D92A3
:1013D0008A95E9F7C9CF96E0929FD001939FB00D0F
:1013E0001124AE55BE4FFE01319601900D929A9593
:1013F000E1F78093A1010E945D07B6CF819FC001F4
:1014000011248E559E4F0E940708882309F4B3CFFC
:10141000E091A0011E9FF0011124EE55FE4F408186
:10142000518162817381848195810E94E50580915B
:10143000A00190E00196877099278093A00195CF35
:1014400069857A858B859C850E94E5058DCF682FFF
:1014500080910001909101010E943A150895682F32
:1014600080910001909101010E943D1508958091A5
:101470000001909101010E94401508958091E001C2
:1014800085958595859508958091E00187700895EB
:101490009091E001977081E009F480E008958091D7
:1014A000EB0108959091EB01892B8093EB01089556
:1014B00080959091EB0198239093EB010895109201
:1014C000EB0108959091EA01892B8093EA01089538
:1014D00080959091EA0198239093EA0108951092E3
:1014E000EA0108958091E101089508950E94750A26
:1014F00008959091220292FF08C09091E1019817FF
:1015000021F08093E1010E94760A08958091E10123
:10151000882329F01092E10180E00E94760A089564
:10152000CF93DF93E0910001F09101018091EB01F5
:101530008083E0910001F091010180819091EA01A6
:10154000892B80839091E101992381F0E091000142
:10155000F09101018081892B80838091000190911D
:1015600001010E94F21481110E94860AC0910001BB
:10157000D091010148E050E068ED71E0CE010E9499
:10158000591D892B59F088E0FE01A8EDB1E00190CA
:101590000D928A95E1F7CE010E948F14DF91CF91D1
:1015A000089508950E94D10A08959091220292FF11
:1015B00011C098E0899F90011124622B6093E00193
:1015C0000E9437068091E0018595859585950E945A
:1015D000D20A08950E94370608951092E00180E033
:1015E0000E94D20A08959091E0018095892380930A
:1015F000E001282F277091F4282F082E000C330BC0
:101600009217130659F09091220292FF07C0859518
:10161000859585950E9447060E94ED0A0895909150
:10162000220292FB222720F9281769F080FB92F909
:101630009093220280912102909122020E94570BE6
:1016400082E00E94F30A08958091220282FB88279B
:1016500080F991E089270E940F0B089581E00E9494
:101660000F0B089580E00E940F0B08956FEF7FEF3E
:1016700090E080E00E949B1D089590E080E00E9431
:10168000771D21E0873E9E4F09F020E0822F0895CC
:1016900082E090E00E946F1D089583E090E00E9438
:1016A0006F1D089584E090E00E94771D0895BC01AD
:1016B00084E090E00E949B1D0895AB01BC018FE087
:1016C00090E00E948F1D0895AB01BC0183E190E082
:1016D0000E948F1D089560E070E0CB010E94640BB2
:1016E000089560E070E0CB010E945D0B0E946B0BDF
:1016F000089567EE7EEF90E080E00E949B1D60E021
:1017000082E090E00E947D1D60E083E090E00E9416
:101710007D1D10929F0110929E0160E074E184E0B3
:1017200090E00E949B1D60E086E090E00E947D1D9D
:101730006FEF87E090E00E947D1D40E050E0BA012D
:1017400088E090E00E948F1D60E08DE090E00E94B4
:101750007D1D40E050E0BA0188E190E00E948F1DBD
:1017600060E087E190E00E947D1D40E050E0BA011A
:101770008CE190E00E948F1D70E060E080E290E0DC
:101780000E949B1D40E050E0BA0188E190E00E9479
:101790008F1D0E94710B08950E94790B0895682F88
:1017A0008EE090E00E947D1D0895A5E0B0E0EBED95
:1017B000FBE00C941C1D0E94F6158C018091EC013D
:1017C0009091ED0180179107A1F08FEF89838A83B3
:1017D0001B820E94F6158160782F9D838C8349813E
:1017E0005A816B818D810E9458021093ED01009304
:1017F000EC012596E4E00C94381D0E9402166093DB
:10180000F6017093F7018093F8019093F9016093CA
:10181000F2017093F3018093F4019093F501089520
:10182000089508950E94110C089508950E94150CC2
:10183000089581E008958CEB9EE00E9478140E9448
:10184000100C0E94120C08950E94190C08950E9419
:10185000240C0895089508950E942A0C0E942B0CD0
:1018600008950E94D80E0E942C0208950E94ED1542
:101870000E949A0F0E94310C0E94160C0895A5E058
:10188000B0E0E5E4FCE00C94161D0E94190C8111F7
:101890000AC00E94D50B0E94CE110E943F022596DD
:1018A000EAE00C94321D0E94B00F8EEEA82E81E06B
:1018B000B82E750110E0F70101917F01812F0E9480
:1018C000FE0E1F5F143009F440C00817A1F3809189
:1018D000FA0181FD0E94040F0E94270CC82E10E01F
:1018E000812F0E94FE0E082FF50181915F010817DC
:1018F00031F1D02ED826F12CEE24E3948D2D8E21BB
:10190000B1F0CC20A1F0F9821A8391E0802F8E21D2
:1019100009F490E09B830E94F6158160782F9D83E7
:101920008C8349815A816B818D810E945802F39486
:10193000EE0CF3E0FF12E2CFF501319700831F5F59
:10194000143071F60E94FD0BA6CF0813C0CFA1CFB3
:101950001F93CF93DF930E94D70DEC01C11580E553
:10196000D807F0F5C11580E4D80708F09CC0C03E48
:10197000D10520F5CD3CD10508F082C0C83AD1058B
:1019800078F4C53AD10508F073C0C130D10519F11A
:10199000209709F1C430D105F0F4D0E0C0E01BC0BD
:1019A000C33CD105D0F7C85AD0E0CC0FDD1FC45BD3
:1019B000DE4F0990D881C02DD4640DC0C11580E2DE
:1019C000D80708F0D1C0C11581E0D80708F05AC087
:1019D000C83ED10510F7CE01DF91CF911F91089538
:1019E000C03682E5D80718F5C03482E5D80708F07C
:1019F0006BC0C03282E5D80708F05FC0C11582E530
:101A0000D80708F497C02C2F2695269580E2289FAA
:101A1000900111248C2F8370C1E0D0E002C0CC0F64
:101A2000DD1F8A95E2F7C22BD32BDD68D4CFC03AF5
:101A300082E5D80760F4C03882E5D80708F459C0B9
:101A4000CF71D0E0DC2FCC27C46FD06AC4CFC03CAC
:101A500082E5D80708F462C0C03E82E5D80708F0E6
:101A60009CCFDC2FCC27CC27DF71C06FD06AB3CFDF
:101A7000C55AD0E0CE57DE4FC881D0E0D064ABCF9E
:101A8000D065A9CF8D2F0E94790E182FCE019927EE
:101A90000E94D70DC12FD0E0DC2FCC27CC27DF71DF
:101AA000C82BD92B98CFCE0199270E94D70DCC27D0
:101AB000DF70C82BD92BD06A8ECFCF71D0E0DC2F4E
:101AC000CC27C16FD06A87CF2C2F269526952770FB
:101AD00080E2289F900111248C2F8370C1E0D0E018
:101AE00002C0CC0FDD1F8A95E2F7C22BD32BDC6836
:101AF00072CF2C2F26952695277080E2289F900183
:101B000011248C2F8370C1E0D0E002C0CC0FDD1F08
:101B10008A95E2F7C22BD32BDA685DCF8C2F8F71B9
:101B20000E94790EC82FD0E0DC2FCC27CC27DF71A4
:101B3000D06251CF8C2F8F710E94790E55E0D695CF
:101B4000C7955A95E1F7CF70D0E0DC2FCC27282F2E
:101B500030E084FF05C044E0220F331F4A95E1F7CF
:101B6000C22BD32BD06937CF8D2F8F710E94790E66
:101B7000182FCE0199270E94D70DC12FD0E0DC2F5E
:101B8000CC27CC27DF71C82BD92BD2CF462F74306E
:101B900030F4633020F4672F0E944E01089590E0E6
:101BA00080E008950E94C60D0E94A80C0895823816
:101BB0009105B9F1B0F48133910509F47DC048F481
:101BC0008932910509F46DC08A32910509F47BC010
:101BD00008958533910509F45FC08933910509F1B2
:101BE0000895833E9105D9F138F4803E910529F19D
:101BF000823E910579F10895863E9105D9F1873E9F
:101C0000910509F43EC0843E910541F520912202E0
:101C100021FF24C08091210284FD19C087EE90E04D
:101C2000089520912102237009F05AC020912202C8
:101C300023FF14C089E290E008952091210220FD45
:101C400038C03091220230FF09C024FF43C090E029
:101C500080E008952091210222FDF7CF0895209180
:101C6000210222FD3AC03091220230FD39C024FF0A
:101C7000F5CFEDCF2091210223FFF0CF24FDE7CF58
:101C8000CDCF2091210223FD2EC03091220231FFC1
:101C9000EECF84EE90E008952091210225FFDECF63
:101CA000C9CF2091210225FD21C02091220223FFCE
:101CB000D5CF89E390E0D2CF2091210226FFCECF6D
:101CC0008AE290E008952091210226FFC7CF81E3A8
:101CD00090E0089583EE90E0089582EE90E00895FC
:101CE00080EE90E0089586EE90E0089585E390E020
:101CF00008959091210292FF06C0282F2871283064
:101D0000F9F4877F846093FF06C0282F287128315B
:101D1000F1F4877E84612091220220FF06C0382FD3
:101D200038713830D9F4877F816021FF06C0282FB1
:101D300028712831D1F4877E816194FD877E0895D2
:101D4000282F24712430F9F68B7F8860DCCF282F70
:101D50002471243101F78B7E8861DDCF382F3171FA
:101D6000313019F78E7F8860E0CF282F2171213123
:101D700021F78E7E8861E1CF80E008950E94360BC6
:101D800008950E94B00F8FE39CE90197F1F700C01E
:101D900000000E94B00F80E00E94FE0E80FF04C091
:101DA0000E94BE0E0E94411608950E94C10E089521
:101DB0000E943D0B811102C00E94CC0B0E94480B77
:101DC0008093FA010E94520B909322028093210289
:101DD0000E94D50E0E944D0B90E00E94FB05809161
:101DE0009C0190919D010E941C06089508950E94F7
:101DF000F60E089508950E94FA0E0895E82FF0E077
:101E0000E95DFD4F80810895089580EA8A95F1F794
:101E1000089500C008950E94050F0895F894E82FD2
:101E2000E295EF70F0E031A1282F2F7081E090E073
:101E300001C0880F2A95EAF7982F9095932391A3D4
:101E400092A1892B82A37894089587EF0E940E0FA8
:101E500086EF0E940E0F85EF0E940E0F84EF0E9406
:101E60000E0F86EC0E940E0F80EF0E940E0F81EF86
:101E70000E940E0F0895B0E0A0E0E1E4FFE00C94B2
:101E8000181DEC01D62E062F10E0C80188579E4F72
:101E90007C01FC0180818F3F09F445C0F894E82F54
:101EA000E295EF70F0E091A18F7021E030E001C089
:101EB000220F8A95EAF7892F822B81A382A1209590
:101EC000282322A378940E94090FE5E8F1E048E86E
:101ED00051E031E0C12C21912F3F51F1A22FA29569
:101EE000AF70B0E090968C9190E02F7002C0959505
:101EF00087952A95E2F780FD1BC0832FC82A330FF0
:101F00004E175F0741F7F70180818F3F11F00E9464
:101F10000E0F61E0C11001C060E08D2D0E940B0F1B
:101F2000C00FD11FC882CDB7DEB7E8E00C94341DD6
:101F300080E0E4CF0E94250F84E0E7E2F2E0DF01D9
:101F4000982F1D929A95E9F7E3E2F2E0DF011D92E6
:101F50008A95E9F784E00E94ED0F0E94F70E08953C
:101F6000A4E0B0E0E6EBFFE00C941D1D19821A829C
:101F70001B821C8210E0612FCE0101960E943B0F54
:101F80001F5F1430C1F744E050E0BE016F5F7F4F28
:101F900083E292E00E94591D21E0009709F420E0BD
:101FA000892B61F089819A81AB81BC818093230266
:101FB00090932402A0932502B093260244E067E2A6
:101FC00072E083E292E00E94EE0F182F0E94FB0E57
:101FD000812F2496E3E00C94391D0895CF92DF926F
:101FE000EF92FF920F931F93CF936C017B01042F0D
:101FF000222349F081E08093FD010E94F615909321
:10200000FC018093FB01C091FD01C1110AC0C0E039
:102010008C2FCF911F910F91FF90EF90DF90CF9079
:1020200008958091FB019091FC010E940E16059786
:1020300070F310E0A801B601C7010E94591D892B59
:1020400041F0A801B601C7010E94661D1092FD0172
:10205000DFCFC0E0FBCF0E94CA170E94360C0E945F
:10206000D71708950E94DC170E943F0C0E94F617B4
:1020700008950E948F150E94B0170E941B0C0E94A9
:102080002B100E9432100E942C0CFBCF8091040276
:1020900080FF0DC06091070170E0660F771F603808
:1020A000710570F56115710569F1862F089581FF3D
:1020B00007C06091070184E0689FB0011124EFCF51
:1020C0006091070182FD0AC0809103028823A9F074
:1020D0002091060160910701821710F088E0ECCF93
:1020E000869FC001112433E0880F991F3A95E1F7CC
:1020F000622F70E00E94F41CD2CF68E070E0D5CF70
:102100008FE7089581E008958091040280FF0CC05C
:102110006091030170E075956795759567956115F8
:10212000710549F1862F089581FF06C06091030172
:1021300070E075956795F3CF6091030182FD0BC048
:10214000909102029923A1F0609102018091030114
:10215000961738F0682F70E06038710500F38FE74C
:102160000895899FC001112470E00E94F41CF4CFEF
:1021700061E070E0D7CF81E008958D3C31F40E949A
:10218000461081958093080208958E3C19F40E94B0
:102190004610F8CF8F3C31F40E9446108195809311
:1021A00007020895803D19F40E944610F8CF893D3A
:1021B00029F40E9484108093090208958A3D21F435
:1021C0000E9484108195F7CF8B3D31F40E948410DA
:1021D000819580930A0208958C3D19F40E94841021
:1021E000F8CF9FE2980F983070F4815D990B21E051
:1021F00030E001C0220F8A95EAF780910602822B17
:102200008093060208958D3D31F48091040281602F
:102210008093040208958E3D21F48091040282602F
:10222000F7CF8F3DB9F7809104028460F1CF4091E0
:1022300007028D3C59F48091080287FF0DC010926F
:10224000080241110BC01092030208C08E3C81F4B9
:102250008091080218169CF3442381F080910902B2
:1022600090910A02892B09F05AC010920202089537
:102270008F3C49F447FFF0CF10920702809108028B
:102280008111ECCFE0CF803D19F41416ACF3E4CF0C
:1022900090910902893D29F41916F4F61092090269
:1022A000DBCF8A3D19F497FFD7CFF8CF90910A0280
:1022B0008B3D29F497FFD0CF10920A02CDCF8C3DF1
:1022C00019F41916CCF3C8CF9FE2980F983090F408
:1022D000815D990B21E030E0B90102C0660F771FE4
:1022E0008A95E2F7CB01809590910602892380932D
:1022F0000602B2CF8D3D31F4809104028E7F80932F
:102300000402AACF8E3D21F4809104028D7FF7CF85
:102310008F3D09F0A1CF809104028B7FF0CF08950B
:102320000E94F6159C019091070280910802982B5B
:1023300021F03093010220930002909109028091D4
:102340000A02982B21F03093FF012093FE0185E0D3
:1023500092E00E949A14089586E0E5E0F2E0DF0141
:102360001D928A95E9F710920302109202021092D0
:1023700004020895FC01828181110EC083818111C4
:102380000BC08481811108C091E08581811101C059
:1023900090E0892F8170089581E0FCCFA6E0B0E045
:1023A000E4EDF1E10C941D1D86E0E5E0F2E0DE01D4
:1023B000119601900D928A95E1F710920702109202
:1023C00008021092090210920A028B819C81892BCB
:1023D00089F080910002909101020E940E16AC01DA
:1023E000909103029923C9F1809108018417150681
:1023F00008F440C08D819E81892B91F08091FE016F
:102400009091FF010E940E16AC0190910202992357
:1024100009F471C0809104018417150608F479C08D
:10242000BE016F5F7F4F85E092E00E9447158111EA
:1024300005C085E092E00E94BA1181110E949011BE
:1024400086E0FE013196A5E0B2E001900D928A95FA
:10245000E1F72696E3E00C94391D209109018AE00A
:10246000289F900111242417350720F69F5F909331
:10247000030202C09F3FD1F71B81112359F00E9434
:1024800046109FEF11160CF491E0899F802D1124C6
:10249000809307021C81112359F00E9446109FEF80
:1024A00011160CF491E0899F802D1124809308026D
:1024B00030910702332309F49DCF20910802222393
:1024C00009F498CF45EB3403C0011124992359F046
:1024D0009093070245EB240390011124332339F034
:1024E0003093080287CF81E080930702F3CF81E029
:1024F000809308027FCF209105018AE0289F9001F8
:1025000011242417350708F08BCF9F5F90930202A8
:1025100002C09F3FD1F71D81112359F00E94841002
:102520009FEF11160CF491E0899F802D1124809368
:1025300009021E81112359F00E9484109FEF111689
:102540000CF491E0899F802D112480930A02309130
:102550000902332309F464CF20910A02222309F4EB
:102560005FCF45EB3403C0011124992359F09093B8
:10257000090245EB240390011124332339F03093F1
:102580000A024ECF81E080930902F3CF81E080936D
:102590000A0246CFCF93DF93EC01FB0182818823AF
:1025A00009F4D2C09E0130572332310508F0B2C081
:1025B0000E94520B9093220280932102FE01E1506F
:1025C000F047E232F10520F4E154F24E0C94081D7C
:1025D0008091210281608093210293C08091220228
:1025E0008860809322028DC0809121028260F3CFA7
:1025F000809121028460EFCF809121028860EBCF2F
:10260000809122028160EDCF809122028260E9CF29
:10261000809121028061DFCF809121028062DBCF37
:10262000809121028064D7CF0E94A8058091210269
:102630008068D1CF809121028C60CDCF8091220221
:102640008360CFCF809121028E7FC5CF80912202FF
:10265000877FC7CF809121028D7FBDCF80912102DE
:102660008B7FB9CF80912102877FB5CF80912202E5
:102670008E7FB7CF809122028D7FB3CF80912102D0
:102680008F7EA9CF809121028F7DA5CF80912102DD
:102690008F7BA1CF0E94A805809121028F779BCFCD
:1026A00080912102837F97CF809122028C7F99CFE6
:1026B0008091210282FB992790F921E0922790FBDB
:1026C00082F990FB83F987CF80912202982F909511
:1026D00091708E7F892B90FB81F983CF909121029D
:1026E000892F8F7B96FF806476CF0E94A8059091FA
:1026F0002102892F97FB87F980586DCF81E00E94D6
:10270000CF0B80912102909122020E94570B0E94D0
:10271000A80580E0DF91CF91089580E0F0CF9091FF
:102720002102892F8F7E94FF806155CF90912102E5
:10273000892F8E7F90FF81604ECF90912202892F4A
:10274000877F93FF88604DCF81E0E4CFCF93DF9305
:10275000EB0186319C4711F50E944F0A9A8199231B
:1027600099F08A7A91E009F490E090930B0281113C
:1027700009C089E20E94270A0E94900A80E0DF9146
:10278000CF91089585E3F6CF80910B02811104C0AB
:1027900089E20E942F0AF0CF85E3FBCF81E0EFCFE3
:1027A0000F931F93CF93DF93C42FD22FFC0182810D
:1027B0008823C9F040930E020E94F61590930D02F3
:1027C00080930C0280E28C0F883040F4C77081E067
:1027D00001C0880FCA95EAF70E943E03DF91CF91AE
:1027E0001F910F91089510910E02141332C0809121
:1027F0000C0290910D020E940E16883C910548F53E
:10280000C0E2CD0F1D17B9F080E2810F883040F48F
:10281000177081E001C0880F1A95EAF70E944503FE
:10282000C83048F481E09D2F977001C0880F9A95B9
:10283000EAF70E943E03802F0E943503C83070F6ED
:10284000D77081E001C0880FDA95EAF70E9445034E
:10285000C5CF80E28C0F883008F6C77081E001C0D8
:10286000880FCA95EAF7F2CF0F93DB0188519C4796
:1028700087309105A0F5FC01EF51F24E0C94081D34
:1028800006E221EE41EE6AE17CE7CD010E94D01321
:1028900080E00F91089507E225EE45EE6BE17CE7BD
:1028A000F4CF06E221EE40EE68E17CE7EECF07E2EE
:1028B00025EE44EE69E17CE7E8CF06E221EE42EE48
:1028C0006CE17CE7E2CF07E225EE46EE6DE17CE7C6
:1028D000DCCF08E221E045EE6EE17CE7D6CF129630
:1028E0008C91882319F010920E02D3CF81E0D1CFC2
:1028F00090938D0180938C0108959093140280939E
:1029000013020895E0911302F0911402309729F018
:102910000190F081E02D0995089580E00895E091FF
:102920001302F0911402309721F00280F381E02D20
:1029300009950895E0911302F0911402309739F04F
:1029400022E0DC012C930480F581E02D09950895A7
:10295000A3E0B0E0EEEAF4E10C941E1D2091110218
:102960003091120228173907A1F090931202809338
:102970001102E0911302F0911402309751F023E01C
:1029800029839B838A830680F781E02DCE010196FF
:1029900009952396E2E00C943A1DA3E0B0E0E3ED44
:1029A000F4E10C941E1D20910F02309110022817A3
:1029B0003907A1F09093100280930F02E091130267
:1029C000F0911402309751F024E029839B838A838D
:1029D0000680F781E02DCE01019609952396E2E06D
:1029E0000C943A1D9C012E5F3F4FAC01485F5F4F36
:1029F00080E02417350709F40895F90191919F01AA
:102A00009923B9F38F5FF5CF662349F0FC01329625
:102A100008962191261729F0E817F907D1F780E0E9
:102A2000089581E008959C01FC0132969FEF80E0BB
:102A30004191461751F09F3F19F4411101C0982F61
:102A40008F5F8630A9F79F3F09F40895290F311D44
:102A500097FD3A95F90162830895FC013296089634
:102A60002191261303C0DF0111971C92E817F90783
:102A7000B9F708950E94131508950E942D15089521
:102A8000029626E0FC0111922A95E9F7089546E0A6
:102A900050E00E94591D21E0892B09F420E0822F8B
:102AA000089508950E9451150895811106C081E08E
:102AB000809315020E945215089582E0F9CF83E0B9
:102AC000809315020E94521508950E94551508958D
:102AD00081E0809315020E94521508950E946815A6
:102AE0000895089508950E9472150895089508950F
:102AF0000E9471150895CF930E9476150E94B00F21
:102B00000E947715C0E08C2F0E94FE0E811105C037
:102B1000CF5FC430C1F7CF91089581E0FCCF85B776
:102B2000806885BF85B7806885BF08951F921FB6EE
:102B30001F9211248F939F93AF93BF93809116029E
:102B4000811113C080912B0290912C02A0912D0233
:102B5000B0912E024196A11DB11D80932B0290933E
:102B60002C02A0932D02B0932E02BF91AF919F91A2
:102B70008F911F901FBE1F90189580913302843053
:102B800031F10E940F021092160288E190E020E4D9
:102B90000FB6F894A895809360000FBE2093600054
:102BA00083B7817F846083BF83B7816083BF78945C
:102BB000889583B78E7F83BF0FB6F894A8958091D0
:102BC0006000886180936000109260000FBE0895DD
:102BD0000E94A8050E941402089582E084BD93E03B
:102BE00095BD9AEF97BD80936E0008952FB7F89426
:102BF00080912B0290912C02A0912D02B0912E0277
:102C00002FBF08952FB7F89460912B0270912C027A
:102C100080912D0290912E022FBF08959C014FB7F5
:102C2000F89480912B0290912C02A0912D02B091EA
:102C30002E024FBF821B930B089578941F921FB6EC
:102C40001F9211248F939F93AF93BF9380912B0278
:102C500090912C02A0912D02B0912E020196A11DFF
:102C6000B11D80932B0290932C02A0932D02B09360
:102C70002E02BF91AF919F918F911F901FBE1F9009
:102C8000189581E08093E00080E28093D800109254
:102C9000C9008FE19EE40197F1F700C0000087E0D2
:102CA00090EBDC0180933C0290933D02A0933E02A6
:102CB000B0933F0288E19CE00FB6F894A89580930A
:102CC00060000FBE90936000FFCF88E19CE00FB6DC
:102CD000F894A895809360000FBE90936000FFCF9A
:102CE00080911F0208959B01BA01909133029430A4
:102CF000E9F48F708093E9009FEF8091E800915094
:102D000085FD06C085ED8A95F1F700009111F5CF9C
:102D10008091E80085FF0AC050E040E0C9010E94B0
:102D20006D188091E8008E778093E800089543E065
:102D300050E0BC0182E00E947316089546E050E026
:102D4000BC0182E00E9473160895CF93DF93EC01DB
:102D500048E050E0BC0181E00E94731688E0FE016B
:102D6000A7E1B2E001900D928A95E1F7DF91CF9152
:102D7000089580913202811109C00E94FD190E94BC
:102D80005A1A8091E20084608093E20008951092C4
:102D9000320208950E946815089560912F0281E023
:102DA000611101C080E00E945F1508959091330287
:102DB00081E0943009F080E060912F020E94651557
:102DC000089542E061EC81E00E94791942E261ECF1
:102DD00082E00E9479199091330281E0943009F0E9
:102DE00080E060912F020E94551508958091350270
:102DF000833009F461C030F48130D1F1823009F4BC
:102E00009EC008958A3009F48AC08B3009F46FC0DF
:102E1000893009F050C080913402813209F04BC0F2
:102E20008091380290913902029708F044C0809155
:102E3000E800877F8093E8008091E80082FF37C038
:102E40009091F3008091F200029731F48091F100AB
:102E5000813011F0863021F48091F10080931F02BF
:102E60008091E8008B778093E8000E94AD1923C021
:102E700080913402813AF9F48091E800877F809351
:102E8000E8008091380290913902892B61F468E062
:102E900087E192E070E00E94BC188091E8008B7797
:102EA0008093E800089560E090E080E0F3CF8091A7
:102EB00033028111C1CF089580913402813AD9F74C
:102EC0008091380290913902892BA9F78091E8000E
:102ED000877F8093E8008091E80080FFFCCF80919D
:102EE00012018093F1008091E8008E77BCCF809131
:102EF0003402813201F78091380290913902892B96
:102F0000D1F68091E800877F8093E8000E94AD1998
:102F100080913602809312010E94A8050895809145
:102F20003402813241F68091E800877F8093E80087
:102F30000E94AD19809137028093200208958091FC
:102F40003402813A09F0B7CF8091E800877F8093FF
:102F5000E8008091E80080FFFCCF80912002C1CF83
:102F600084B7877F84BF0FB6F894A89580916000DE
:102F7000886180936000109260000FBE80E890E04E
:102F80000FB6F89480936100909361000FBE0E9489
:102F90006E1508950E94FD190E945A1AE2EEF0E0A3
:102FA00080818460808378940E94D91C08958AE08F
:102FB00091E00E947D14089580913302853031F4B0
:102FC00080913302853019F00E94E81508950E941F
:102FD000BD1580913102882399F30E947B158823C7
:102FE00079F30E9457180E94A805EACF08959A0124
:102FF00040913A0250913B020E94FF170895492FD9
:1030000055274330510519F168F44130510509F451
:1030100044C04230510509F445C090E080E050E0E2
:1030200040E025C04132510549F142325105A9F72E
:1030300080E490E04AEB51E061157105C1F08BE747
:1030400090E04FE351E06130710589F0E6CF9927B8
:103050008130910581F0009729F00297F1F6E4ECB8
:10306000F0E002C0EEEEF0E0849190E0AF01F901F3
:10307000518340830895ECEDF0E0F6CF89E090E0D5
:1030800044E051E06115710591F389E090E04DE174
:1030900051E06130710559F3C0CF82E190E04DE21B
:1030A00051E0E5CF8BE390E042EF50E0E0CF80E1EC
:1030B00089BD82E189BD09B400FEFDCF8091D800B1
:1030C0008F7D8093D8008091E00082608093E00043
:1030D0008091E00081FDFCCF0895AF92BF92CF9226
:1030E000DF92FF920F931F93CF93DF936C01EB015D
:1030F0008A010E94CC19F82E811123C001151105F7
:1031000039F0F80180819181C81BD90BC80ED91EF6
:10311000B12CA12C2097A9F08091E80085FD22C058
:103120008091E8008E778093E80001151105A1F0E9
:10313000F80180819181A80EB91EB182A08285E03C
:10314000F82E8F2DDF91CF911F910F91FF90DF907F
:10315000CF90BF90AF9008950E94CC198823D1F2F0
:10316000F82EEFCFF60181916F018093F100219746
:10317000FFEFAF1ABF0ACECFFC0180913A029091C7
:103180003B0286179707A0F06115710529F490910D
:10319000E8009E779093E80090E06115710551F486
:1031A000911108C08091E80082FF34C080E008954A
:1031B000BC01F2CF809133028823C1F18530C1F187
:1031C0008091E80083FD30C08091E80082FDEACF65
:1031D0008091E80080FFE1CF8091F3002091F20020
:1031E000382F6115710519F02830310558F091E03C
:1031F0002830310509F090E02091E8002E772093E7
:10320000E800CBCF81918093F100615071092F5F6D
:103210003F4FE7CF80913302882341F0853041F062
:103220008091E80083FFBECF81E0089582E0089599
:1032300083E00895FC0180913A0290913B02861749
:103240009707A0F06115710529F48091E8008E7749
:103250008093E80090E06115710551F4911108C068
:103260008091E80082FF35C080E00895BC01F2CF74
:10327000809133028823C9F18530C9F18091E8003B
:1032800083FD31C08091E80082FDEACF8091E800A3
:1032900080FFE1CF8091F3002091F200382F61157B
:1032A000710519F02830310558F091E028303105CA
:1032B00009F090E08091E8008E778093E800CBCF12
:1032C00084918093F1003196615071092F5F3F4FD7
:1032D000E6CF80913302882341F0853041F0809120
:1032E000E80083FFBDCF81E0089582E0089583E088
:1032F0000895982F973028F08F708093E90081E02F
:1033000008959093E900242F762F50E0981731F01C
:103310007091EC002091ED005091F00021FD02C071
:103320009F5FE8CF3091EB003E7F3093EB00309110
:10333000ED003D7F3093ED003091EB003160309334
:10334000EB007093EC002093ED005093F00020917F
:10335000EE0027FDE5CF80E008958091340287FFDD
:1033600013C08091E80082FF06C08091E8008B774F
:103370008093E80004C0809133028111F2CF089558
:10338000809133028823D9F38091E80080FFF8CF41
:103390008091E8008E77ECCF2091E4003091E50039
:1033A00095E6A9012091EC00822F817020FF06C0D4
:1033B0008091E80080FF06C080E008952091E80039
:1033C00022FD1AC080913302882389F0853089F06C
:1033D0008091EB0085FD0FC02091E4003091E50065
:1033E00042175307F9F29150E1F684E0089582E024
:1033F000089583E0089581E008950E946C1A0E9468
:10340000741AE0EEF0E0808181608083E8EDF0E006
:1034100080818F77808319BCA7EDB0E08C918E7F7F
:103420008C9380818F7E80831092320208950F9357
:103430001F93CF93DF930E946C1A0E94741AC8EDF9
:10344000D0E088818F7788838881806888838881AD
:103450008F7D888319BC1092330210922F02109234
:1034600031021092300200EE10E0F80180818B7F73
:10347000808388818160888342E060E080E00E94F0
:103480007919E1EEF0E080818E7F8083E2EEF0E05A
:10349000808181608083808188608083F801808161
:1034A0008E7F8083888180618883DF91CF911F9197
:1034B0000F910895E8EDF0E080818F7E8083E7ED45
:1034C000F0E080818160808384E082BF81E080932E
:1034D00032020E94171A0895E8EDF0E080818E7F95
:1034E00080831092E20008951092DA001092E100B9
:1034F00008951F920F920FB60F9211242F933F93AE
:103500004F935F936F937F938F939F93AF93BF93EB
:10351000EF93FF938091E10082FF0BC08091E20066
:1035200082FF07C08091E1008B7F8093E1000E94C1
:10353000D81C8091DA0080FF19C08091D80080FFEC
:1035400015C08091DA008E7F8093DA008091D900D7
:1035500080FF96C080E189BD82E189BD09B400FE8B
:10356000FDCF81E0809333020E94B9168091E10083
:1035700080FF19C08091E20080FF15C08091E200B9
:103580008E7F8093E2008091E20080618093E20070
:103590008091D80080628093D80019BC85E0809328
:1035A00033020E94CD168091E10084FF2BC08091F0
:1035B000E20084FF27C080E189BD82E189BD89B531
:1035C000982F917080FFFBCF8091D8008F7D8093E2
:1035D000D8008091E1008F7E8093E1008091E2002D
:1035E0008F7E8093E2008091E20081608093E20010
:1035F00080912F02882309F449C084E0809333022C
:103600000E94D6168091E10083FF29C08091E200DC
:1036100083FF25C08091E100877F8093E10082E0F5
:103620008093330210922F028091E1008E7F80936D
:10363000E1008091E2008E7F8093E2008091E200C1
:1036400080618093E20042E060E080E00E947919AE
:103650008091F00088608093F0000E94CA16FF916C
:10366000EF91BF91AF919F918F917F916F915F91FA
:103670004F913F912F910F900FBE0F901F90189573
:1036800019BC109233020E94C71670CF8091E300DC
:1036900087FD93E090933302B3CF1F920F920FB642
:1036A0000F9211242F933F934F935F936F937F93C8
:1036B0008F939F93AF93BF93CF93DF93EF93FF933A
:1036C000D091E900DF708091EC00C82FC17080FDBF
:1036D000C0E81092E9008091F000877F8093F000AD
:1036E00078940E94911B1092E9008091F00088600C
:1036F0008093F000CD2BCF70C093E900FF91EF9144
:10370000DF91CF91BF91AF919F918F917F916F91F9
:103710005F914F913F912F910F900FBE0F901F908F
:103720001895AAE2B0E0E7E9FBE10C941D1D84E3E3
:1037300092E02091F100FC012193CF01F2E08C3363
:103740009F07B9F70E94F6168091E80083FF1EC11B
:1037500080913402909135029A3008F017C1E92F18
:10376000F0E0E851F24E0C94081D803899F0823850
:1037700009F00CC1809138028F70873008F006C1C3
:103780008093E9008091EB0085FB882780F91092F7
:10379000E90006C08091300290913102911182605F
:1037A0009091E800977F9093E8008093F100109249
:1037B000F1008091E8008E77E5C0882309F4D3C03A
:1037C000823009F0E3C0809136028111D6C0809129
:1037D00038028F702FEF280F263008F0D7C0809363
:1037E000E9002091EB0020FFC8C0933031F48091B4
:1037F000EB0080628093EB00C0C09091EB00906181
:103800009093EB0021E030E001C0220F8A95EAF7A7
:103810002093EA001092EA008091EB008860EACFE2
:103820008111B4C0109136021F778091E300807837
:10383000812B8093E3008091E800877F8093E800EC
:103840000E94AD198091E80080FFFCCF8091E300D9
:1038500080688093E30082E0111183E0809333025B
:1038600095C08058823008F091C0809136029091C6
:1038700037028C3D23E09207A1F583E08A838AE238
:1038800089834FB7F894DE01139620E03EE051E2C1
:10389000E32FF0E050935700E49120FF03C0E2953E
:1038A000EF703F5FEF708E2F90E0EA30C0F0C79668
:1038B0008D939D932F5F243159F74FBF8091E8007E
:1038C000877F8093E8006AE270E0CE0101960E9453
:1038D000BC188091E8008B778093E80057C0C096B1
:1038E000E7CF6091380270913902AE014F5F5F4FB0
:1038F0000E94F717BC01892B09F448C09091E80099
:10390000977F9093E80089819A810E941A19E1CFEC
:103910008038E1F58091E800877F8093E80080910E
:103920002F028093F10045CF811130C09091360273
:10393000923060F58091E800877F8093E800909353
:103940002F020E94AD1980912F02882311F084E08C
:1039500005C08091E30087FDFACF81E080933302B8
:103960000E94E11613C080913602813079F481E023
:10397000933009F080E0809331021092E900809149
:10398000E800877F8093E8000E94AD198091E800ED
:1039900083FF0AC08091E800877F8093E8008091D0
:1039A000EB0080628093EB00AA96E3E00C94391D53
:1039B0000895CF93809133028823A1F0C091E9004C
:1039C000CF709091EC00892F817090FD80E8C82B1A
:1039D0001092E9008091E80083FD0E94911BCF7056
:1039E000C093E900CF91089597FB072E16F4009439
:1039F00007D077FD09D00E94451D07FC05D03EF495
:103A0000909581959F4F0895709561957F4F08958A
:103A1000EE0FFF1F0590F491E02D09942F923F9235
:103A20004F925F926F927F928F929F92AF92BF92CE
:103A3000CF92DF92EF92FF920F931F93CF93DF937A
:103A4000CDB7DEB7CA1BDB0B0FB6F894DEBF0FBED7
:103A5000CDBF09942A88398848885F846E847D8424
:103A60008C849B84AA84B984C884DF80EE80FD8026
:103A70000C811B81AA81B981CE0FD11D0FB6F8949C
:103A8000DEBF0FBECDBFED010895AA1BBB1B51E1E8
:103A900007C0AA1FBB1FA617B70710F0A61BB70BBE
:103AA000881F991F5A95A9F780959095BC01CD0163
:103AB0000895FB01DC0104C08D910190801921F46F
:103AC00041505040C8F7881B990B0895FB01DC0159
:103AD00002C001900D9241505040D8F70895F999D5
:103AE000FECF92BD81BDF89A992780B50895A8E1CF
:103AF000B0E042E050E00C94A31D262FF999FECFD0
:103B000092BD81BDF89A019700B4021639F01FBA30
:103B100020BD0FB6F894FA9AF99A0FBE089503964D
:103B2000272F0E947E1D0E947D1D252F0E947E1D35
:103B3000242F0C947E1D0196272F0E947E1D0C942D
:103B40007D1DDC01CB01FC01F999FECF06C0F2BD61
:103B5000E1BDF89A319600B40D9241505040B8F74B
:103B60000895F894FFCF8B038B03DC03DC034F0431
:103B70006B04BA03BA037004E104F004F0042213E6
:103B800096132A13F412F8122E13FC1232133E135A
:103B900008138F130C134213101346136E131413D0
:103BA0004A1375131A1350135813001336130413C2
:103BB0003A131E13541364137E138D13EE1226133F
:103BC0009D135114571440144B145D14631469145D
:103BD000B51BDD1BC61CDD1BC61C101C311CC61C06
:043BE000881C941C8D
:103BE400E201280850011E0A14017016A5169E163B
:103BF400971601E200E900EA00B500B600B700CD6F
:103C0400008301CC008A0192019401210223022441
:103C1400022502260227022A02B300B4006F0070B4
:103C2400009F01CB019F02A002818283E200E90090
:103C3400EA00B500B600B700CD008301CC008A01CC
:103C44009201940121022302240225022602270262
:103C54002A02B300B4006F0070009F01CB019F02E1
:0C3C6400A002818283C6F0F1F7F6F5F4AF
:00000001FF
